:020000040800F2
:1000000000200020411500082113000827130008D4
:1000100000000000000000000000000000000000E0
:100020000000000000000000000000002D13000888
:100030000000000000000000371300084113000812
:1000400091150008000000009115000891150008A6
:1000500091150008911500089115000891150008E8
:100060000000000091150008911500089115000886
:100070009115000891150008911500080000000076
:100080009115000800000000000000005113000856
:100090000000000091150008911500089115000856
:1000A00091150008911500089115000885130008A6
:0800B00091150008000000009A
:1000B80010B5064C2378002B07D1054B002B02D036
:1000C800044800E000BF0123237010BD0C0000208D
:1000D80000000000582D0008044B10B5002B03D079
:1000E8000349044800E000BF10BDC04600000000FE
:1000F80010000020582D0008002243088B4274D3BA
:1001080003098B425FD3030A8B4244D3030B8B4210
:1001180028D3030C8B420DD3FF22090212BA030C19
:100128008B4202D31212090265D0030B8B4219D3FA
:1001380000E0090AC30B8B4201D3CB03C01A52411A
:10014800830B8B4201D38B03C01A5241430B8B4262
:1001580001D34B03C01A5241030B8B4201D30B034B
:10016800C01A5241C30A8B4201D3CB02C01A524172
:10017800830A8B4201D38B02C01A5241430A8B4235
:1001880001D34B02C01A5241030A8B4201D30B021E
:10019800C01A5241CDD2C3098B4201D3CB01C01A38
:1001A800524183098B4201D38B01C01A5241430942
:1001B8008B4201D34B01C01A524103098B4201D330
:1001C8000B01C01A5241C3088B4201D3CB00C01A9D
:1001D800524183088B4201D38B00C01A5241430815
:1001E8008B4201D34B00C01A5241411A00D201463A
:1001F800524110467047FFE701B5002000F006F8AD
:1002080002BDC0460029F7D076E770477047C04660
:1002180080B582B000AF0200FB1D1A70FB1D1B7871
:100228007F2B09D8FB1D1B781A001F231A40044B8B
:10023800012191400A001A60C046BD4602B080BD47
:1002480000E100E090B583B000AF02003960FB1D0B
:100258001A70FB1D1B787F2B28D82F4AFB1D1B7893
:100268005BB29B08C0339B009B58FA1D12781100A3
:1002780003220A40D200FF2191400A00D2431A40CB
:1002880011003B689B01FF221A40FB1D1B781800D8
:1002980003230340DB009A401F48FB1D1B785BB219
:1002A8009B080A43C0339B001A5031E01B4AFB1DD0
:1002B8001B7819000F230B40083B9B0806339B0053
:1002C800D31804331B68FA1D1278110003220A4060
:1002D800D200FF2191400A00D2431A4011003B6826
:1002E8009B01FF221A40FB1D1B78180003230340C3
:1002F800DB009A400948FB1D1B781C000F23234094
:10030800083B9B080A4306339B00C31804331A6052
:10031800C046BD4603B090BD00E100E000ED00E03E
:1003280080B582B000AF78607B681B6801221A43F1
:100338007B681A60C046BD4602B080BD80B582B0F9
:1003480000AF78607B681B6880221A437B681A605C
:10035800C046BD4602B080BD80B582B000AF7860AF
:100368007B68DB6801221A437B68DA60C046BD46B9
:1003780002B080BD80B582B000AF78607B681B6832
:1003880001221A437B681A60C046BD4602B080BD90
:1003980080B582B000AF78607B681B68034A1A405A
:1003A8007B681A60C046BD4602B080BDFFFFFFDF14
:1003B80080B586B000AF78603960EFF31083BB601A
:1003C800BB687B610123FB60FB6883F31088C04630
:1003D8007B689B68DB00DA083B685B071A437B682D
:1003E8009A607B693B613B6983F31088C046C046CD
:1003F800BD4606B080BD000080B586B000AF78600D
:100408003960EFF31083BB60BB687B610123FB603D
:10041800FB6883F31088C0467B689B68084A1A40CB
:100428003B685B061A437B689A607B693B613B6962
:1004380083F31088C046C046BD4606B080BDC0469E
:10044800FFFFFFF180B582B000AF78607B685B6822
:100458000A4A1A407B685A607B689B682222934349
:100468001A007B689A607B689B6808221A437B683D
:100478009A60C046BD4602B080BDC046FFB7FFFFC8
:1004880080B582B000AF78607B68DA6980239B030F
:100498001A4080239B039A4201D1012300E00023E4
:1004A8001800BD4602B080BD80B582B000AF78604C
:1004B8007B68DA698023DB031A408023DB039A42D6
:1004C80001D1012300E000231800BD4602B080BD21
:1004D80080B586B000AF7860EFF31083BB60BB686F
:1004E8007B610123FB60FB6883F31088C0467B684F
:1004F8001B6820221A437B681A607B693B613B6951
:1005080083F31088C046C046BD4606B080BD80B59E
:1005180082B000AF786039607B681B693A68134025
:100528003A689A4201D1012300E000231800BD4631
:1005380002B080BD80B582B000AF786039607B685A
:100548003A689A61C046BD4602B080BD80B582B0A7
:1005580000AF786039607B683A689A62C046BD46E9
:1005680002B080BD80B584B000AF7860074B196CCD
:10057800064B7A680A431A64044B1B6C7A6813406A
:10058800FB60FB68C046BD4604B080BD0010024059
:1005980080B584B000AF7860074B596B064B7A681A
:1005A8000A435A63044B5B6B7A681340FB60FB6831
:1005B800C046BD4604B080BD0010024080B500AF03
:1005C800A023DB0501211800FFF7C0FFA023DB05EE
:1005D80002211800FFF7BAFFA023DB050421180049
:1005E800FFF7B4FFA023DB0508211800FFF7AEFFD3
:1005F800A023DB0510211800FFF7A8FFA023DB05C7
:1006080020211800FFF7A2FFA023DB0540211800D6
:10061800FFF79CFFA023DB0580211800FFF796FF5A
:10062800064B01211800FFF791FF044B0221180027
:10063800FFF78CFFC046BD4680BDC0460004005091
:1006480080B500AF80231A01A023DB051100180034
:10065800FFF77CFF80235A01A023DB051100180057
:10066800FFF774FF80231A02A023DB05110018008E
:10067800FFF76CFF144B08211800FFF767FF124BB8
:1006880010211800FFF762FF0F4B20211800FFF719
:100698005DFF0D4B40211800FFF758FF0A4B8021E2
:1006A8001800FFF753FF80235B00074A190010006A
:1006B800FFF74CFF80239B00034A19001000FFF747
:1006C80045FFC046BD4680BD0004005080B582B0DD
:1006D80000AF7860FFF772FF7B680A2B49D87B6808
:1006E8009A00264BD3181B689F46A023DB050121DF
:1006F8001800FFF71FFF3CE0A023DB0502211800CC
:10070800FFF718FF35E0A023DB0504211800FFF7E9
:1007180011FF2EE0A023DB0508211800FFF70AFFD0
:1007280027E0A023DB0510211800FFF703FF20E0D6
:10073800A023DB0520211800FFF7FCFE19E0A02309
:10074800DB0540211800FFF7F5FE12E0A023DB05CA
:1007580080211800FFF7EEFE0BE0094B012118007D
:10076800FFF7E8FE05E0064B02211800FFF7E2FE5E
:10077800C046C046BD4602B080BDC046702D0008C8
:100788000004005080B582B000AF7860FFF758FFD2
:100798007B680A2B4ED87B689A00284BD3181B68B5
:1007A8009F4680231A01A023DB0511001800FFF7DC
:1007B800C1FE3FE080235A01A023DB051100180089
:1007C800FFF7B8FE36E080231A02A023DB051100EC
:1007D8001800FFF7AFFE2DE0194B08211800FFF7AE
:1007E800A9FE27E0164B10211800FFF7A3FE21E011
:1007F800134B20211800FFF79DFE1BE0104B4021F2
:100808001800FFF797FE15E00D4B80211800FFF741
:1008180091FE0FE080235B00094A19001000FFF7E2
:1008280089FE07E080239B00054A19001000FFF7A6
:1008380081FEC046C046BD4602B080BD9C2D000862
:100848000004005080B500AF254B1B78432B13D113
:10085800244B04211800FFF76DFE80235A00A023C3
:10086800DB0511001800FFF771FE8023DB011E4A2B
:1008780019001000FFF76AFE194B1B78502B13D193
:10088800184B04211800FFF761FE80235A00A023AB
:10089800DB0511001800FFF74DFE8023DB01124A2B
:1008A80019001000FFF746FE0D4B1B78002B13D1E3
:1008B8000C4B04211800FFF749FE80235A00A0239F
:1008C800DB0511001800FFF741FE8023DB01064A13
:1008D80019001000FFF73AFEC046BD4680BDC0466D
:1008E8003C000020000400500008005080B500AF14
:1008F800374B1B68A02B05D10120FFF743FF0120D0
:10090800FFF7E4FE324B1B68502B05D10220FFF79E
:1009180039FF0220FFF7DAFE2D4B1B68282B05D183
:100928000320FFF72FFF0320FFF7D0FE284B1B689B
:100938001E2B05D10420FFF725FF0420FFF7C6FE74
:10094800234B1B68142B05D10520FFF71BFF05203F
:10095800FFF7BCFE1E4B1B68112B05D10620FFF7C5
:1009680011FF0620FFF7B2FE194B1B680F2B05D1AC
:100978000720FFF707FF0720FFF7A8FE144B1B68A7
:100988000C2B05D10820FFF7FDFE0820FFF79EFE7F
:100998000F4B1B680A2B05D10920FFF7F3FE09202E
:1009A800FFF794FE0A4B1B68062B05D10A20FFF7B8
:1009B800E9FE0A20FFF78AFE054B1B68002B03D1CE
:1009C800FFF73EFEFFF7FAFDC046BD4680BDC046B4
:1009D8003800002080B500AF00F0D8FD00F028F8FE
:1009E80000F052F900F0B6F800F07EF80D4B180050
:1009F800FFF796FC0B4B1800FFF7AEFC0A4B1800EC
:100A0800FFF766FD094B40211800FFF780FD030042
:100A1800012B03D1FFF76AFFFFF714FF0A2002F04A
:100A280047F9EFE700200040003801400008005077
:100A380090B593B000AF14243B19180034231A0062
:100A4800002102F059F93B1D180010231A0000215B
:100A580002F052F980239B00180000F0D1FE3B19E8
:100A680002221A603B1980225200DA6021007B18AA
:100A780000221A617B1840225A617B180222DA612F
:100A88007B1802221A627B1800225A627B180822FD
:100A98009A627B1880229202DA627B188022920581
:100AA8001A637B18180000F0EBFE031E01D000F05B
:100AB800B9FB3B1D07221A603B1D02225A603B1DF1
:100AC800802212019A603B1D0022DA603B1D012141
:100AD800180001F0E5F9031E01D000F0A3FBC046A1
:100AE800BD4613B090BD000080B586B000AF3B1D79
:100AF800180014231A00002102F0FEF880231B02BC
:100B08001800FFF72FFD00211320FFF79BFB132090
:100B1800FFF77EFB3B1D0D4A1A803B1D00225A60E1
:100B28003B1DF422FF329A603B1D0022DA603B1D18
:100B3800074A1900100001F035FF054B1800FFF7B0
:100B4800FDFBC046BD4606B080BDC046FF7C000028
:100B58000020004080B594B000AF3023FB18180087
:100B680020231A00002102F0C7F81823FB181800E8
:100B780018231A00002102F0BFF83B0018001823C0
:100B88001A00002102F0B8F83B0001221A603B006D
:100B980000225A603B00180001F00CFB031E01D034
:100BA80000F040FB8023DB011800FFF7DBFC01208D
:100BB800FFF7EEFC18217B18802292001A607B1840
:100BC80002225A607B1800229A607B180122DA60A0
:100BD8007B1801221A617B1801225A617A18A02316
:100BE800DB051100180001F0C4FC00211B20FFF7F1
:100BF80029FB1B20FFF70CFB30217B1800221A6011
:100C08007B189622D2015A607B1800229A607B18C2
:100C18000022DA607B1800221A617B180C225A61C4
:100C28007B180022DA617B18164A1900100001F0BF
:100C3800CDFF144B00211800FFF7BAFB114B002120
:100C48001800FFF7D9FB0F4B1800FFF7A1FB0D4B5E
:100C58001800FFF7F7FB0B4B1800FFF78BFBC0469C
:100C6800084B1800FFF70CFC031EF9D0054B1800C1
:100C7800FFF71AFC031EF3D0C046C046BD4614B0A9
:100C880080BDC0460038014080B586B000AF3B004B
:100C9800180018231A00002102F02EF80220FFF78E
:100CA80077FC0420FFF774FC0120FFF771FC802318
:100CB8009B00FE4A19001000FFF748FC8023DB0167
:100CC800FB4A19001000FFF741FC80231B02F84A79
:100CD80019001000FFF73AFCA023DB0501211800DA
:100CE800FFF734FCA023DB0502211800FFF72EFCD8
:100CF800A023DB0504211800FFF728FCA023DB054F
:100D080008211800FFF722FCA023DB05102118009A
:100D1800FFF71CFCA023DB0520211800FFF716FCB9
:100D2800A023DB0540211800FFF710FCA023DB05FA
:100D380080211800FFF70AFCDC4B01211800FFF79F
:100D480005FCDA4B02211800FFF700FCD74B042101
:100D58001800FFF7FBFB80235A00A023DB051100D6
:100D68001800FFF7F3FB80231A01A023DB0511000D
:100D78001800FFF7EBFB80235A01A023DB051100C5
:100D88001800FFF7E3FB80231A02A023DB051100FC
:100D98001800FFF7DBFBC54B08211800FFF7D6FB4F
:100DA800C24B10211800FFF7D1FBC04B20211800BF
:100DB800FFF7CCFBBD4B40211800FFF7C7FBBB4B2F
:100DC80080211800FFF7C2FB80235B00B74A190097
:100DD8001000FFF7BBFB3B00802292001A603B002B
:100DE80001225A603B0000229A603B000022DA6030
:100DF8003B0000221A613B00AC4A1900100001F0C8
:100E0800B8FB3B008022D2011A603B0001225A60E5
:100E18003B0000229A603B000022DA603B0000227F
:100E28001A613B00A24A1900100001F0A2FB3B0026
:100E3800802212021A603B0001225A603B00002205
:100E48009A603B000022DA603B0000221A613B00F6
:100E5800974A1900100001F08CFB3B0001221A6030
:100E68003B0001225A603B0000229A603B000022AE
:100E7800DA603B0000221A613A00A023DB0511006A
:100E8800180001F076FB3B0002221A603B000122A9
:100E98005A603B0000229A603B000022DA603B0067
:100EA80000221A613A00A023DB051100180001F0A6
:100EB80060FB3B0004221A603B0001225A603B00A1
:100EC80000229A603B000022DA603B0000221A618F
:100ED8003A00A023DB051100180001F04AFB3B0093
:100EE80008221A603B0001225A603B0000229A60E7
:100EF8003B000022DA603B0000221A613A00A0237E
:100F0800DB051100180001F034FB3B0010221A60C9
:100F18003B0001225A603B0000229A603B000022FD
:100F2800DA603B0000221A613A00A023DB051100B9
:100F3800180001F01EFB3B0020221A603B00012232
:100F48005A603B0000229A603B000022DA603B00B6
:100F580000221A613A00A023DB051100180001F0F5
:100F680008FB3B0040221A603B0001225A603B000C
:100F780000229A603B000022DA603B0000221A61DE
:100F88003A00A023DB051100180001F0F2FA3B003B
:100F980080221A603B0001225A603B0000229A60BE
:100FA8003B000022DA603B0000221A613A00A023CD
:100FB800DB051100180001F0DCFA3B0001221A6081
:100FC8003B0001225A603B0000229A603B0000224D
:100FD800DA603B0000221A613B00344A1900100015
:100FE80001F0C7FA3B0002221A603B0001225A6056
:100FF8003B0000229A603B000022DA603B0000229E
:101008001A613B00294A1900100001F0B2FA3B00AE
:1010180004221A603B0001225A603B0000229A60B9
:101028003B000022DA603B0000221A613B001F4AA5
:101038001900100001F09DFA3B00802252001A604E
:101048003B0001225A603B0000229A603B000022CC
:10105800DA603B0000221A613A00A023DB05110088
:10106800180001F086FA3B0040221A603B0000227B
:101078005A603B0001221A613B000D4A190010001A
:1010880001F077FA3B00802212011A603B0001222E
:101098005A603B0000229A603B000022DA603B0065
:1010A80000221A613A00A023DB0503E00004005087
:1010B800000800501100180001F05BFA3B00802284
:1010C80052011A603B0001225A603B0000229A60DC
:1010D8003B000022DA603B0000221A613A00A0239C
:1010E800DB051100180001F044FA3B0080221202CF
:1010F8001A603B0001225A603B0000229A603B00C4
:101108000022DA603B0000221A613A00A023DB05C6
:101118001100180001F02DFA3B0008221A603B006C
:1011280001225A603B0000229A603B000022DA60EC
:101138003B0000221A613B00394A1900100001F0F7
:1011480018FA3B0010221A603B0001225A603B004B
:1011580000229A603B000022DA603B0000221A61FC
:101168003B002F4A1900100001F003FA3B0020222F
:101178001A603B0001225A603B0000229A603B0043
:101188000022DA603B0000221A613B00244A190061
:10119800100001F0EEF93B0040221A603B000122EA
:1011A8005A603B0000229A603B000022DA603B0054
:1011B80000221A613B001A4A1900100001F0D9F9FF
:1011C8003B0080221A603B0001225A603B0000224B
:1011D8009A603B000022DA603B0000221A613B0063
:1011E8000F4A1900100001F0C4F93B008022520098
:1011F8001A603B0001225A603B0000229A603B00C3
:101208000022DA603B0000221A613B00044A190000
:10121800100001F0AEF9C046BD4606B080BDC0461C
:101228000004005080B500AF72B6C046FEE700006B
:1012380080B582B000AF0F4B1A6C0E4B01210A43E8
:101248001A640C4B1B6C012213407B607B68094BB2
:10125800DA6B084B802149050A43DA63054BDA6BE0
:1012680080235B0513403B603B68C046BD4602B027
:1012780080BDC0460010024080B582B000AF7860E3
:101288007B68022252421A61C046BD4602B080BD48
:1012980080B582B000AF78607B681B69012213407B
:1012A800012B01D1012300E000231800BD4602B044
:1012B80080BD80B582B000AF78607B68DB69202292
:1012C8001340202B01D1012300E000231800BD4664
:1012D80002B080BD80B582B000AF78607B685B6A81
:1012E800DBB21800BD4602B080BD80B584B000AF47
:1012F800786039607B685B69FB60FB683A6813401B
:101308001A04FB68DB4339680B401A437B689A610F
:10131800C046BD4604B080BD80B500AFFEE780B5CD
:1013280000AFFEE780B500AFC046BD4680BD80B5C2
:1013380000AFC046BD4680BD80B500AF00F090F953
:10134800C046BD4680BD000080B500AF094B1800FF
:10135800FFF79EFF031E0AD0064B1800FFF78CFF0D
:1013680080231B02044A19001000FFF7BEFFC04685
:10137800BD4680BD002000400008005090B583B0F5
:1013880000AF654B1800FFF794FF031E00D1BFE0C4
:10139800FC1D614B1800FFF79DFF03002370FB1D28
:1013A8001B78FD2B15D05D4B1B7819005C4BFA1D83
:1013B80012785A54594B1B780133DAB2574B1A70CA
:1013C800564B1B780F2B00D0A2E0544B00221A700A
:1013D8009EE0524B1B781A00514BFD2199544F4BFC
:1013E80000221A704E4B1B78FE2B00D060E04C4B4D
:1013F8005B78FE2B5CD14A4B1B79002B58D1484BAC
:101408001B7A012B03D0464B1B7A022B02D1454B8A
:10141800A0221A60424B1B7A032B03D0404B1B7A45
:10142800042B02D13F4B50221A603D4B1B7A052BEF
:1014380002D13C4B3C221A60394B1B7A072B02D154
:10144800384B28221A60364B1B7A102B02D1354BA9
:101458001E221A60324B1B7A142B02D1314B1422F4
:101468001A602F4B1B7A182B02D12E4B11221A60AF
:101478002B4B1B7A212B02D12A4B0F221A60284BA7
:101488001B7A242B02D1274B0C221A60244B1B7A7F
:10149800282B03D0224B1B7A292B02D1214B0A225D
:1014A8001A601F4B1B7A502B02D11E4B06221A6062
:1014B8001B4B1B78FE2B26D1194B5B78FE2B22D1B8
:1014C800174B1B79012B1ED1154B5B79032B02D1CE
:1014D800154B43221A70124B5B79002B0FD0104B1F
:1014E8005B79012B0BD00E4B5B79022B07D00C4B91
:1014F8005B79052B03D00A4B5B79062B07D10A4B86
:1015080050221A7003E0084B00221A7000E0C0460F
:10151800C046BD4603B090BD003801403D000020E4
:1015280028000020380000203C00002080B500AFD3
:10153800C046BD4680BD00000D488546FFF7F6FF52
:101548000C480D490D4A002302E0D458C450043316
:10155800C4188C42F9D30A4A0A4C002301E01360EC
:101568000432A242FBD301F0CFFBFFF733FAFEE7C8
:1015780000200020000000200C000020602E000841
:101588000C00002044000020FEE7000080B582B077
:1015980000AFFB1D00221A700B4B1A680A4B802102
:1015A80049000A431A60032000F010F8031E03D014
:1015B800FB1D01221A7001E0FFF73AFEFB1D1B78A4
:1015C8001800BD4602B080BD0020024090B585B02D
:1015D80000AF78600F23FB1800221A701D4B1B7890
:1015E800002B2BD01C4B1C681A4B1B781900FA23B4
:1015F8009800FEF781FD030019002000FEF77CFD2E
:101608000300180000F0EFF8031E12D17B68032BCB
:101618000AD8796801235B420022180000F0CEF84E
:101628000E4B7A681A600DE00F23FB1801221A701E
:1016380008E00F23FB1801221A7003E00F23FB18A0
:1016480001221A700F23FB181B781800BD4605B03D
:1016580090BDC046080000200000002004000020C3
:1016680080B500AF054B1B781A00054B1B68D218D4
:10167800034B1A60C046BD4680BDC0460800002026
:101688004000002080B500AF024B1B681800BD4623
:1016980080BDC0464000002090B583B000AF020076
:1016A8003960FB1D1A70FB1D1B787F2B28D82F4A29
:1016B800FB1D1B785BB29B08C0339B009B58FA1D2F
:1016C8001278110003220A40D200FF2191400A003B
:1016D800D2431A4011003B689B01FF221A40FB1DB0
:1016E8001B78180003230340DB009A401F48FB1DAA
:1016F8001B785BB29B080A43C0339B001A5031E049
:101708001B4AFB1D1B7819000F230B40083B9B0845
:1017180006339B00D31804331B68FA1D1278110096
:1017280003220A40D200FF2191400A00D2431A4006
:1017380011003B689B01FF221A40FB1D1B78180013
:1017480003230340DB009A400948FB1D1B781C005B
:101758000F232340083B9B080A4306339B00C3180A
:1017680004331A60C046BD4603B090BD00E100E0F6
:1017780000ED00E080B582B000AF78607B685A1E4B
:1017880080235B049A4201D3012310E00A4B7A6854
:10179800013A5A6001235B4203211800FFF77CFFDE
:1017A800054B00229A60044B07221A600023180098
:1017B800BD4602B080BDC04610E000E080B584B0F0
:1017C80000AFB9607A600F217B18021C1A70BA68E2
:1017D8007B181B785BB211001800FFF75DFFC0464D
:1017E800BD4604B080BD80B582B000AF78607B682C
:1017F8001800FFF7BFFF03001800BD4602B080BD08
:1018080080B584B000AF7860194B1B68194A134043
:101818001900174B7A680A431A607A6880239B007C
:101828009A421FD1144B1A6813005B009B185B0087
:1018380012491800FEF760FC03000133FB6008E062
:10184800FB68002B03D0FB68013BFB6001E003232E
:1018580009E0074B5A698023DB001A408023DB002C
:101868009A42EDD000231800BD4604B080BDC046A2
:1018780000700040FFF9FFFF0000002040420F0009
:1018880080B588B000AF78607B68002B01D1012358
:10189800F3E27B681B680122134000D17CE0C34B54
:1018A8009B6838221340BB61C04BDB68032213409E
:1018B8007B61BB69102B02D17B69032B02D0BB690A
:1018C800082B0BD1B94B1A6880239B02134062D0B6
:1018D8007B685B68002B5ED10123CEE27B685A6887
:1018E80080235B029A4207D1B04B1A68AF4B802124
:1018F80049020A431A6020E07B685A68A023DB0289
:101908009A420ED1A94B1A68A84B8021C9020A43F2
:101918001A60A64B1A68A54B802149020A431A602F
:101928000BE0A24B1A68A14BA1490A401A609F4BD1
:101938001A689E4B9F490A401A607B685B68002BB7
:1019480014D0FFF79FFE03003B6108E0FFF79AFE03
:1019580002003B69D31A642B01D903238DE2934B10
:101968001A6880239B021340F0D015E0FFF78AFE27
:1019780003003B6108E0FFF785FE02003B69D31ACC
:10198800642B01D9032378E2884B1A6880239B02D1
:101998001340F0D100E0C0467B681B680222134068
:1019A80000D199E0814B9B6838221340BB617F4B83
:1019B800DB68032213407B61BB69102B02D17B6972
:1019C800022B02D0BB69002B35D1784B1A688023D3
:1019D800DB00134005D07B68DB68002B01D10123B5
:1019E8004BE2724B5B68744A134019007B685B6971
:1019F8001A026E4B0A435A60BB69002B12D16B4B1B
:101A08001B686E4A134019007B681A69674B0A43C2
:101A18001A60664B1B68DB0A07221340684ADA40E3
:101A2800684B1A60684B1B681800FFF7CFFD031E50
:101A380051D0012321E27B68DB68002B30D05B4B5F
:101A48001B685E4A134019007B681A69574B0A43A2
:101A58001A60564B1A68554B802149000A431A6090
:101A6800FFF710FE03003B6108E0FFF70BFE0200E2
:101A78003B69D31A022B01D90323FEE14B4B1A68A9
:101A88008023DB001340F0D0484B5B684A4A134080
:101A980019007B685B691A02444B0A435A601BE0D1
:101AA800424B1A68414B49490A401A60FFF7EAFD60
:101AB80003003B6108E0FFF7E5FD02003B69D31A2C
:101AC800022B01D90323D8E1384B1A688023DB00A5
:101AD8001340F0D100E0C0467B681B680822134021
:101AE80047D0324B9B6838221340182B0AD12F4B12
:101AF8001B6E022213403CD07B689B69002B38D1B7
:101B08000123BAE17B689B69002B19D0274B1A6E19
:101B1800264B01210A431A66FFF7B4FD03003B6117
:101B280008E0FFF7AFFD02003B69D31A022B01D989
:101B38000323A2E11D4B1B6E02221340F1D018E0D3
:101B48001A4B1A6E194B01218A431A66FFF79AFD40
:101B580003003B6108E0FFF795FD02003B69D31ADB
:101B6800022B01D9032388E1104B1B6E022213407C
:101B7800F1D17B681B680422134000D1C6E01F2303
:101B8800FB1800221A70094B9B6838221340202B3F
:101B98001ED1064BDB6D0222134000D1B6E07B68F4
:101BA8009B68002B00D0B1E0012366E100100240E1
:101BB800FFFFFEFFFFFFFBFFFF80FFFFFFC7FFFFE9
:101BC8000024F4000000002004000020FFFEFFFFB6
:101BD800AC4BDA6B80235B05134001D1012300E095
:101BE8000023002B11D0A74BDA6BA64B80214905A7
:101BF8000A43DA63A34BDA6B80235B051340FB606F
:101C0800FB681F23FB1801221A709F4B1A68802358
:101C18005B0013401AD19C4B1A689B4B80214900EA
:101C28000A431A60FFF72EFD03003B6108E0FFF747
:101C380029FD02003B69D31A022B01D903231CE1B9
:101C4800914B1A6880235B001340F0D07B689B6837
:101C5800012B06D18B4BDA6D8A4B01210A43DA65D9
:101C68001CE07B689B68052B0CD1864BDA6D854B95
:101C780004210A43DA65834BDA6D824B01210A435A
:101C8800DA650BE07F4BDA6D7E4B01218A43DA651A
:101C98007C4BDA6D7B4B04218A43DA657B689B6851
:101CA800002B14D0FFF7EEFC03003B6109E0FFF7BF
:101CB800E9FC02003B69D31A744A934201D9032311
:101CC800DBE0704BDB6D02221340F0D013E0FFF72E
:101CD800D9FC03003B6109E0FFF7D4FC02003B6933
:101CE800D31A6A4A934201D90323C6E0654BDB6DD8
:101CF80002221340F0D11F23FB181B78012B05D1BA
:101D0800604BDA6B5F4B62490A40DA637B68DB69D8
:101D1800002B00D1B0E05B4B9B6838221340102B9E
:101D280000D178E07B68DB69022B53D1554B1A68E8
:101D3800544B58490A401A60FFF7A4FC03003B6162
:101D480008E0FFF79FFC02003B69D31A022B01D978
:101D5800032392E04B4B1A6880239B041340F0D175
:101D6800484BDB684C4A134019007B681A6A7B6849
:101D78005B6A1A437B689B6A1B021A437B68DB6AAF
:101D88001A437B681B6B1A433E4B0A43DA603D4B90
:101D98001A683C4B802149040A431A60394BDA68B7
:101DA800384B802149050A43DA60FFF76BFC0300D2
:101DB8003B6108E0FFF766FC02003B69D31A022B7F
:101DC80001D9032359E02F4B1A6880239B04134041
:101DD800F0D051E02B4B1A682A4B2E490A401A6062
:101DE800FFF750FC03003B6108E0FFF74BFC0200E3
:101DF8003B69D31A022B01D903233EE0214B1A6811
:101E080080239B041340F0D11E4BDA681D4B2349F5
:101E18000A40DA6030E07B68DB69012B01D10123DD
:101E28002BE0184BDB687B617B6903221A407B68D7
:101E38001B6A9A421ED17B6970221A407B685B6AD2
:101E48009A4217D17A69FE23DB011A407B689B6AA4
:101E58001B029A420ED17A69F8239B031A407B68C9
:101E6800DB6A9A4206D17B695B0F5A077B681B6B5A
:101E78009A4201D0012300E000231800BD4608B0B3
:101E880080BDC0460010024000700040881300006A
:101E9800FFFFFFEFFFFFFFFE8C80C11FFCFFFEEF7F
:101EA80080B584B000AF786039607B68002B01D1C1
:101EB8000123E9E0764B1B68072213403A689A42EF
:101EC8001ED9734B1B68072293431900704B3A685D
:101ED8000A431A60FFF7D6FB0300FB6009E0FFF72F
:101EE800D1FB0200FB68D31A6A4A934201D9032343
:101EF800CAE0674B1B68072213403A689A42EED142
:101F08007B681B680222134015D07B681B6804227B
:101F1800134006D0604B9A685F4BE021C9010A4321
:101F28009A605D4B9B685D4A134019007B689A680C
:101F3800594B0A439A607B681B680122134057D0AB
:101F48007B685B68012B07D1534B1A6880239B027F
:101F580013402BD1012397E07B685B68022B07D1E4
:101F68004D4B1A6880239B0413401FD101238BE03B
:101F78007B685B68002B07D1474B1A688023DB001E
:101F8800134013D101237FE07B685B68032B06D1E4
:101F9800414B1B6E0222134008D1012374E03E4BD3
:101FA800DB6D0222134001D101236DE03A4B9B689F
:101FB8000722934319007B685A68374B0A439A6093
:101FC800FFF760FB0300FB6009E0FFF75BFB020023
:101FD800FB68D31A2F4A934201D9032354E02E4BAE
:101FE8009B6838221A407B685B68DB009A42ECD118
:101FF800274B1B68072213403A689A421ED2244B8B
:102008001B68072293431900214B3A680A431A6058
:10201800FFF738FB0300FB6009E0FFF733FB020022
:10202800FB68D31A1B4A934201D903232CE0184BAF
:102038001B68072213403A689A42EED17B681B68F6
:102048000422134009D0144B9B68154A1340190009
:102058007B68DA68104B0A439A6000F029F801009F
:102068000D4B9B681B0A0F221A400E4B9200D35847
:102078001F2213400A00DA400B4B1A600B4B1B68F7
:102088001800FFF7A3FA03001800BD4604B080BD8E
:10209800002002408813000000100240FFF0FFFFFC
:1020A800FF8FFFFFC82D000800000020040000205B
:1020B80080B586B000AF3C4B9B68382213400FD1E7
:1020C800394B1B68DB0A0722134001229A40130090
:1020D8003B6039683548FEF70FF803003B615DE067
:1020E800314B9B6838221340082B02D1304B3B619F
:1020F80054E02D4B9B6838221340102B38D12A4BC3
:10210800DB6803221340FB60274BDB681B090722AF
:1021180013400133BB60FB68032B0DD1B968244819
:10212800FDF7EAFF030019001F4BDB681B0A7F223B
:1021380013404B437B610DE0B9681C48FDF7DCFF99
:1021480003001900184BDB681B0A7F2213404B431E
:102158007B61C046144BDB685B0F072213400133D9
:102168007B6079687869FDF7C7FF03003B6115E07C
:102178000D4B9B6838221340202B03D180231B0270
:102188003B610BE0084B9B6838221340182B03D1A6
:10219800FA23DB013B6101E000233B613B69180046
:1021A800BD4606B080BDC046001002400024F400C1
:1021B80000127A0080B586B000AF78601323FB1850
:1021C80000221A701223FB1800221A707B681A6802
:1021D80080239B02134000D1A3E011203B1800226A
:1021E8001A707F4BDA6B80235B05134010D17C4B50
:1021F800DA6B7B4B802149050A43DA63784BDA6B4B
:1022080080235B051340BB60BB683B1801221A7032
:10221800744B1A68734B802149000A431A60FFF710
:1022280031FA0300FB600BE0FFF72CFA0200FB68B1
:10223800D31A022B04D91323FB1803221A7005E0C2
:10224800684B1A6880235B001340EDD01323FB18FA
:102258001B78002B54D1624BDA6DC0239B001340CE
:102268007B617B69002B19D07B685B697A699A422C
:1022780014D05B4BDB6D5C4A13407B61584BDA6DC5
:10228800574B802149020A43DA65554BDA6D544BA6
:1022980056490A40DA65524B7A69DA657B69012248
:1022A800134016D0FFF7EEF90300FB600CE0FFF7D0
:1022B800E9F90200FB68D31A4D4A934204D9132363
:1022C800FB1803221A7004E0454BDB6D0222134011
:1022D800EDD01323FB181B78002B0AD1404BDB6D84
:1022E800414A134019007B685A693D4B0A43DA6535
:1022F8000CE01223FB181322BA1812781A7005E0A2
:102308001223FB181322BA1812781A701123FB181B
:102318001B78012B05D1324BDA6B314B35490A401A
:10232800DA637B681B680122134009D02C4B5B6D74
:102338000322934319007B685A68294B0A435A655C
:102348007B681B682022134009D0254B5B6D2A4A05
:10235800134019007B689A68214B0A435A657B68C9
:102368001A688023DB01134015D01D4B5B6D9B0061
:1023780099087B681A691A4B0A435A657B681A6977
:102388008023DB059A4206D1154BDA68144B80216D
:1023980049020A43DA607B681A6880231B011340EC
:1023A80016D00F4B5B6D154A134019007B68DA682D
:1023B8000B4B0A435A657B68DA688023DB019A4233
:1023C80006D1074BDA68064B802149020A43DA60D6
:1023D8001223FB181B781800BD4606B080BDC04606
:1023E8000010024000700040FFFCFFFFFFFFFEFFEF
:1023F80088130000FFFFFFEFFFCFFFFFFF3FFFFF46
:1024080080B584B000AFF860B9607A60FB6819687D
:10241800BB685B431A0013005B009B18DB430B404F
:102428001A00BB685B4379684B431A43FB681A6020
:10243800C046BD4604B080BD80B584B000AFF8602A
:10244800B9607A60FB685B68BA68D2431A40BB68B7
:1024580079684B431A43FB685A60C046BD4604B0CE
:1024680080BD80B584B000AFF860B9607A60FB6861
:102478009968BB685B431A0013005B009B18DB4339
:102488000B401A00BB685B4379684B431A43FB68EF
:102498009A60C046BD4604B080BD80B584B000AF28
:1024A800F860B9607A60FB68D968BB685B431A005A
:1024B80013005B009B18DB430B401A00BB685B43AF
:1024C80079684B431A43FB68DA60C046BD4604B0DE
:1024D80080BD80B584B000AFF860B9607A60FB68F1
:1024E800196ABB685B43BA685343BA685A43130016
:1024F8001B019B1ADB430B401A00BB685B43B9689E
:102508004B43B9684B4379684B431A43FB681A62DB
:10251800C046BD4604B080BD80B584B000AFF86049
:10252800B9607A60FB68596ABB681B0ABA68120A04
:102538005343BA68120A5343BA68120A5A4313003B
:102548001B019B1ADB430B401A00BB681B0AB968C6
:10255800090A4B43B968090A4B43B968090A4B434E
:1025680079684B431A43FB685A62C046BD4604B0BB
:1025780080BD80B584B000AF786039600023FB600F
:1025880047E03B681B680121FA6891400A00134044
:10259800BB60BB68002B39D03B685B68012B03D05C
:1025A8003B685B68022B0DD13B689A68B9687B6809
:1025B8001800FFF756FF3B68DA68B9687B681800AF
:1025C800FFF73AFF3B681A69B9687B681800FFF79C
:1025D80064FF3B685B68022B11D1BB68FF2B07D8EF
:1025E8003B685A69B9687B681800FFF772FF06E014
:1025F8003B685A69B9687B681800FFF78DFF3B682C
:102608005A68B9687B681800FFF7FAFEFB6801335F
:10261800FB603B681A68FB68DA40131EB1D10023DF
:102628001800BD4604B080BD80B500AF074B1A68DE
:102638008023DB001A408023DB009A4201D101236A
:1026480000E000231800BD4680BDC04600100240CF
:1026580080B500AF054BDB6D02221340022B01D180
:10266800012300E000231800BD4680BD0010024091
:1026780080B500AF034B9B68382213401800BD4655
:1026880080BDC0460010024080B500AF034B9A6879
:10269800F0231B0113401800BD4680BD0010024006
:1026A80080B500AF034B9A68E023DB0113401800A4
:1026B800BD4680BD0010024080B582B000AF786092
:1026C800054B5B6D7A681A407B681B04134318003E
:1026D800BD4602B080BDC0460010024080B500AFC4
:1026E800034BDB681B0A7F2213401800BD4680BDE0
:1026F8000010024080B500AF034BDB685B0F5B073F
:102708001800BD4680BDC0460010024080B500AF2D
:10271800034BDB68032213401800BD4680BDC0464A
:102728000010024080B500AF034BDB6870221340F5
:102738001800BD4680BDC0460010024080B582B07A
:1027480000AF786000F066F802007B681A607B686A
:102758001B68180000F08CF802007B685A607B68E0
:102768005B68180000F09CF802007B689A60C0461D
:10277800BD4602B080BD000080B584B000AF78606F
:102788000023FB607B68032B37D17B681800FFF7B9
:1027980093FF03001B4A934216D01A4A93421CD84F
:1027A800194A934203D0194A934205D015E000F024
:1027B80031F80300FB6020E0FFF736FF0300012B30
:1027C80018D1134BFB6015E0FFF742FF0300012B04
:1027D80012D180231B02FB600EE000F01BF80300FF
:1027E800180000F045F80300180000F059F803003D
:1027F800FB6002E0C04600E0C046FB681800BD462A
:1028080004B080BD030003000100030002000300C0
:102818000024F40080B582B000AFFFF729FF030061
:10282800082B02D0102B03D007E00E4B7B6014E07E
:1028380000F04CF803007B600FE00B4B1B68DB0AD1
:102848000722134001229A4013003B603968074869
:10285800FDF752FC03007B60C0467B681800BD464C
:1028680002B080BD00127A00001002400024F4007B
:1028780080B582B000AF7860FFF706FF03001B0A3F
:102888000F221A40054B9200D3581F2213407A6832
:10289800DA4013001800BD4602B080BDC82D0008FC
:1028A80080B582B000AF7860FFF7FAFE03001A0B1C
:1028B800054B9200D3581F2213407A68DA40130060
:1028C8001800BD4602B080BD082E000890B583B040
:1028D80000AFFFF71BFF03003B603B68022B03D0F0
:1028E8003B68032B03D005E0134B7B6005E0134BDB
:1028F8007B6002E0104B7B60C046FFF7EFFE0200F2
:102908007B6853431C00FFF70DFF03001B090133CD
:1029180019002000FDF7F0FB03001C00FFF7EAFE9A
:1029280003005B0F013319002000FDF7E5FB0300EE
:102938001800BD4603B090BD0024F40000127A00D0
:1029480080B582B000AF786039607B683A689A6277
:10295800C046BD4602B080BD80B582B000AF786089
:1029680039607B683A68DA62C046BD4602B080BD0D
:1029780080B582B000AF786039607B683A681A63C6
:10298800C046BD4602B080BD80B582B000AF786059
:102998007B685B6901221A437B685A61C046BD4661
:1029A80002B080BD80B584B000AF786039607B68C4
:1029B8001B68FB607B682C4A934203D07B682B4AD8
:1029C800934207D1FB68702293431A003B685B6807
:1029D8001343FB607B68244A93420FD07B68234AE9
:1029E80093420BD07B68224A934207D07B68214AE6
:1029F800934203D07B68204A934206D1FB681F4A62
:102A08001A403B68DB681343FB607B68FA681A600E
:102A18003B689A687B6811001800FFF79DFF3B68C8
:102A28001B881A007B6811001800FFF789FF7B6874
:102A38000D4A934207D07B680E4A934203D07B68C5
:102A48000D4A934206D13B681A697B681100180049
:102A5800FFF78EFF7B681800FFF796FF002318002A
:102A6800BD4604B080BDC046002C014000040040B3
:102A7800002000400044014000480140FFFCFFFFE7
:102A880080B582B000AF78607B681B680122134074
:102A9800012B01D1012300E000231800BD4602B03C
:102AA80080BD80B582B000AF786039607B68DB6A32
:102AB8000F2293433A6892B21A437B68DA62C0469F
:102AC800BD4602B080BD000080B582B000AF78601E
:102AD80039607B685B68054A1A403B681A437B6823
:102AE8005A60C046BD4602B080BDC046FFCFFFFF5A
:102AF80080B582B000AF786039607B689B68054A12
:102B08001A403B681A437B689A60C046BD4602B0CB
:102B180080BDC046FFFCFFFF80B586B000AFF860FF
:102B2800B9607A603B607B680B2B46D83B6A002B08
:102B380043D03A6880231B029A4226D17B68DBB2D5
:102B48001A00204B9200D3581900B868FDF7D4FA40
:102B580003005A003B6A5B08D318396A1800FDF76E
:102B6800CBFA03009BB27B617B69174A13403B6138
:102B78007B695B089BB21A00072313403A69134329
:102B88003B61FB683A69DA6017E07B68DBB21A00E0
:102B98000C4B9200D3581900B868FDF7ADFA030042
:102BA8001A003B6A5B08D318396A1800FDF7A4FAC3
:102BB80003009BB21A00FB68DA60C046BD4606B047
:102BC80080BDC046282E0008F0FF000090B58BB0ED
:102BD80002AF786039601F23FB1801221A700023A6
:102BE800BB617B681800FFF74BFF031E53D17B685E
:102BF8001B682C4A1A403B6899683B681B69194353
:102C08003B685B6919433B68DB690B431A437B6884
:102C18001A603B68DA687B6811001800FFF754FFF8
:102C28003B689A697B6811001800FFF761FF7B68B1
:102C38001D4A934205D10320FFF79EFD0300BB61A7
:102C48000BE07B68194A934207D10C243B19180002
:102C5800FFF774FD3B199B68BB61BB69002B13D060
:102C68003B685B68002B0FD01F23FB1800221A70EB
:102C78003B681A683B68DC693B685B68B9697868D7
:102C880000932300FFF748FF3B681A687B68110030
:102C98001800FFF706FF1F23FB181B781800BD4616
:102CA80009B090BDF369FFEF0038014000440040CF
:102CB80080B584B000AF78600E4B1B68BB60BB6802
:102CC8007B68FB60FB6801330CD0FB680133FB6059
:102CD80008E0084B1A6880235B02134002D0FB68A7
:102CE800013BFB60FB68002BF3D1C046C046BD46E4
:102CF80004B080BD10E000E003008218934200D1C8
:102D0800704719700133F9E770B500260C4C0D4D6A
:102D1800641BA410A64209D1002600F019F80A4C39
:102D28000A4D641BA410A64205D170BDB300EB5830
:102D380098470136EEE7B300EB5898470136F2E7BB
:102D4800582E0008582E00085C2E0008582E00083F
:102D5800F8B5C046F8BC08BC9E467047F8B5C046F2
:082D6800F8BC08BC9E46704750
:102D70007A070008F2060008000700080E0700089E
:102D80001C0700082A070008380700084607000843
:102D900054070008620700086E0700083C08000896
:102DA000AA070008BC070008CE070008E0070008D3
:102DB000EC070008F80700080408000810080008DD
:102DC0001C0800082C08000800000000000000009B
:102DD00000000000000000000000000000000000F3
:102DE00000000000000000000100000002000000E0
:102DF00003000000040000000600000007000000BF
:102E000008000000090000000000000000000000B1
:102E100000000000000000000100000002000000AF
:102E20000300000004000000010000000200000098
:102E30000400000006000000080000000A00000076
:102E40000C00000010000000200000004000000006
:082E50008000000000010000F9
:042E5800E10000088D
:042E5C00B9000008B1
:0C2E60000024F400040000000100000049
:040000050800154199
:00000001FF
