:020000040800F2
:1000000000200020B91B0008011B0008091B000884
:1000100000000000000000000000000000000000E0
:10002000000000000000000000000000111B00089C
:1000300000000000000000001B1B0008251B00083A
:10004000091C000800000000091C0008091C000829
:10005000091C0008091C0008091C0008091C0008EC
:1000600000000000091C0008091C0008091C000809
:10007000091C0008091C0008091C000800000000F9
:10008000091C00080000000000000000351B0008EB
:1000900000000000091C0008091C0008091C0008D9
:1000A000091C0008091C0008091C0008691B00083D
:0800B000091C0008000000001B
:1000B80010B5064C2378002B07D1054B002B02D036
:1000C800044800E000BF0123237010BD9400002005
:1000D800000000006C370008044B10B5002B03D05B
:1000E8000349044800E000BF10BDC04600000000FE
:1000F800980000206C370008002243088B4274D314
:1001080003098B425FD3030A8B4244D3030B8B4210
:1001180028D3030C8B420DD3FF22090212BA030C19
:100128008B4202D31212090265D0030B8B4219D3FA
:1001380000E0090AC30B8B4201D3CB03C01A52411A
:10014800830B8B4201D38B03C01A5241430B8B4262
:1001580001D34B03C01A5241030B8B4201D30B034B
:10016800C01A5241C30A8B4201D3CB02C01A524172
:10017800830A8B4201D38B02C01A5241430A8B4235
:1001880001D34B02C01A5241030A8B4201D30B021E
:10019800C01A5241CDD2C3098B4201D3CB01C01A38
:1001A800524183098B4201D38B01C01A5241430942
:1001B8008B4201D34B01C01A524103098B4201D330
:1001C8000B01C01A5241C3088B4201D3CB00C01A9D
:1001D800524183088B4201D38B00C01A5241430815
:1001E8008B4201D34B00C01A5241411A00D201463A
:1001F800524110467047FFE701B5002000F006F8AD
:1002080002BDC0460029F7D076E770477047C04660
:1002180080B584B000AF78603960174BBB60BB68AD
:100228001B68164A934201D0002321E0BB685B6833
:10023800002B03D0BB685B68202B01D9002317E093
:10024800BB685B68FB60FA683B689A4201D93B6807
:10025800FB60BB6808331900FA6813005B009B1841
:100268009B001A007B68180003F072FAFB68DBB287
:100278001800BD4604B080BD00F800083412EFBE77
:1002880080B58CB000AF786039603B68002B02D035
:100298003B68202B01D900235BE001F05FFE0C21B5
:1002A8007B1802221A607B181F229A607B18012291
:1002B800DA600823FA187B181100180001F0FCFE18
:1002C800031E03D001F06EFE002342E0C4235A004F
:1002D800224BFF21180003F00FFA204B204A1A6026
:1002E8001E4B3A685A603A6813005B009B189B00E3
:1002F8001A0079681B4B180003F02AFA174B7B6227
:10030800194BFB62C4235B003B623B6A0733DB0883
:10031800FB610023BB6215E0BB6ADB007A6AD31875
:100328001A685B68F96A012001F0CAFD031E03D050
:1003380001F038FE00230CE0FB6A0833FB62BB6A5D
:100348000133BB62BA6AFB699A42E5D301F02AFE1F
:1003580001231800BD460CB080BDC0463402002001
:100368003412EFBE3C02002000F8000880B582B0CD
:1003780000AF0200FB1D1A70FB1D1B787F2B09D8EC
:10038800FB1D1B781A001F231A40044B01219140C2
:100398000A001A60C046BD4602B080BD00E100E018
:1003A80090B583B000AF02003960FB1D1A70FB1DC9
:1003B8001B787F2B28D82F4AFB1D1B785BB29B0824
:1003C800C0339B009B58FA1D1278110003220A4083
:1003D800D200FF2191400A00D2431A4011003B6825
:1003E8009B01FF221A40FB1D1B78180003230340C2
:1003F800DB009A401F48FB1D1B785BB29B080A4331
:10040800C0339B001A5031E01B4AFB1D1B781900B2
:100418000F230B40083B9B0806339B00D31804337B
:100428001B68FA1D1278110003220A40D200FF212E
:1004380091400A00D2431A4011003B689B01FF22F9
:100448001A40FB1D1B78180003230340DB009A4069
:100458000948FB1D1B781C000F232340083B9B0801
:100468000A4306339B00C31804331A60C046BD46CE
:1004780003B090BD00E100E000ED00E080B582B07F
:1004880000AF78607B681B6801221A437B681A609A
:10049800C046BD4602B080BD80B582B000AF78606E
:1004A8007B681B6880221A437B681A60C046BD4679
:1004B80002B080BD80B582B000AF78607B68DB6831
:1004C80001221A437B68DA60C046BD4602B080BD8F
:1004D80080B582B000AF78607B681B6801221A4340
:1004E8007B681A60C046BD4602B080BD80B582B048
:1004F80000AF78607B681B68034A1A407B681A6003
:10050800C046BD4602B080BDFFFFFFDF80B586B0A4
:1005180000AF78603960EFF31083BB60BB687B6124
:100528000123FB60FB6883F31088C0467B689B68E7
:10053800DB00DA083B685B071A437B689A607B69D3
:100548003B613B6983F31088C046C046BD4606B090
:1005580080BD000080B586B000AF78603960EFF3E9
:100568001083BB60BB687B610123FB60FB6883F37E
:100578001088C0467B689B68084A1A403B685B063F
:100588001A437B689A607B693B613B6983F31088F7
:10059800C046C046BD4606B080BDC046FFFFFFF15D
:1005A80080B582B000AF78607B685B680A4A1A4001
:1005B8007B685A607B689B68222293431A007B6899
:1005C8009A607B689B6808221A437B689A60C046D9
:1005D800BD4602B080BDC046FFB7FFFF80B582B000
:1005E80000AF78607B68DA6980239B031A40802318
:1005F8009B039A4201D1012300E000231800BD4665
:1006080002B080BD80B582B000AF78607B68DA69DF
:100618008023DB031A408023DB039A4201D10123A4
:1006280000E000231800BD4602B080BD80B586B04A
:1006380000AF7860EFF31083BB60BB687B61012378
:10064800FB60FB6883F31088C0467B681B68202228
:100658001A437B681A607B693B613B6983F31088A6
:10066800C046C046BD4606B080BD80B582B000AF6A
:10067800786039607B681B693A6813403A689A4227
:1006880001D1012300E000231800BD4602B080BD5F
:1006980080B582B000AF786039607B683A689A614B
:1006A800C046BD4602B080BD80B582B000AF78605C
:1006B80039607B683A689A62C046BD4602B080BD20
:1006C80080B584B000AF7860074B196C064B7A6828
:1006D8000A431A64044B1B6C7A681340FB60FB687E
:1006E800C046BD4604B080BD0010024080B584B04D
:1006F80000AF7860074B596B064B7A680A435A6318
:10070800044B5B6B7A681340FB60FB68C046BD46D0
:1007180004B080BD0010024080B584B000AF020074
:10072800FB1D1A700F23FB1800221A7019E0802392
:10073800DB01124A19001000FFF7AAFF642001F03C
:10074800E7FA8023DB010D4A19001000FFF7ACFF20
:10075800642001F0DDFA0F217B181A787B1801322A
:100768001A700F23FA18FB1D12781B789A42DED3F1
:10077800C046C046BD4604B080BDC0460008005013
:10078800F0B5E5B000AFB44B1B78002B00D15EE1AB
:10079800B14B00221A70B14B1B88032B06D8AF4B04
:1007A80000221A800420FFF7B7FF51E1AC4B1B78F9
:1007B800AA2B06D0A94B00221A800420FFF7ACFF11
:1007C80046E1C42149007B18A54A52781A700A00EC
:1007D800BB181B78002B03D0BB181B78202B06D91D
:1007E8009E4B00221A800420FFF796FF30E1C423B5
:1007F8005B00FB181B789BB21A1C9200D318DB18FD
:100808009AB2C32149007B1804321A80934B1B8883
:100818007A1812889A4206D0904B00221A80042037
:10082800FFF77AFF14E18D4B1B88013B8C4AD35CA0
:10083800552B06D0894B00221A800420FFF76CFF45
:1008480006E19023FF33FB1800221A70C6235B00D1
:10085800FB1800221A8011E0C62040003B181B88B4
:100868007F4AD15C9022FF32BB18BA1812784A40EE
:100878001A703B181A883B1801321A80C6235B008D
:10088800FB181A88754B1B88023B9A42E4DB734BB2
:100898001B88023B724AD35C9022FF32BA18127846
:1008A8009A4206D06D4B00221A800420FFF734FFCD
:1008B800CEE0C5235B00FB1802221A808A23FF338F
:1008C800FB1800221A708EE0C52464003B191B88AF
:1008D800634AD35C19003B191B880133604AD35C17
:1008E8001B020A001A433B191B8802335C49CB5C84
:1008F8001B041A4311003B191B880333584AD35C65
:100908001B068A25FF357A19127819430800554BBA
:10091800C82676009B19D91913005B009B189B0009
:1009280058503B193A19128804321A803B191B880F
:100938004B4AD35C19003B191B880133484AD35CE6
:100948001B020A001A433B191B8802334449CB5C3B
:100958001B041A4311003B191B880333404AD35C1C
:100968001B067A19127819433E4B9B19D8191300A4
:100978005B009B189B00C318043319603B193A1994
:10098800128804321A803B191B883A19591C1180A5
:100998001A00334B995C7B191A780800314B9B1964
:1009A800D91913005B009B189B00CB180833021C55
:1009B8001A803B191B883A19591C118019007B1998
:1009C8001A78274B585C274B9B19D91913005B00E1
:1009D8009B189B00CB180A33021C1A707B191A78D3
:1009E8007B1901321A708A23FF33FA18C42149008F
:1009F8007B1812781B789A4200D265E77B181A7820
:100A08003B1D11001800FFF73BFC031E06D1134BDA
:100A180000221A800420FFF77FFE19E0C424640036
:100A28003B191A7813005B009B189B001A00391DAC
:100A38000D4B180002F08CFE0C4B3A1912781A7004
:100A48000220FFF769FE054B00221A8000E0C0462D
:100A5800BD4665B0F0BDC046C6040020C4040020F1
:100A6800C403002074FEFFFFB00000203002002005
:100A780080B500AFA023DB0501211800FFF714FEA5
:100A8800A023DB0502211800FFF70EFEA023DB05DB
:100A980004211800FFF708FEA023DB050821180031
:100AA800FFF702FEA023DB0510211800FFF7FCFD6D
:100AB800A023DB0520211800FFF7F6FDA023DB05A6
:100AC80040211800FFF7F0FDA023DB058021180066
:100AD800FFF7EAFD064B01211800FFF7E5FD044B7F
:100AE80002211800FFF7E0FDC046BD4680BDC046A4
:100AF8000004005080B500AF80231A01A023DB0555
:100B080011001800FFF7D0FD80235A01A023DB0550
:100B180011001800FFF7C8FD80231A02A023DB0587
:100B280011001800FFF7C0FD144B08211800FFF74B
:100B3800BBFD124B10211800FFF7B6FD0F4B20210B
:100B48001800FFF7B1FD0D4B40211800FFF7ACFD71
:100B58000A4B80211800FFF7A7FD80235B00074A96
:100B680019001000FFF7A0FD80239B00034A19001D
:100B78001000FFF799FDC046BD4680BD0004005037
:100B880080B582B000AF7860FFF772FF7B680A2BF0
:100B980049D87B689A00264BD3181B689F46A02328
:100BA800DB0501211800FFF773FD3CE0A023DB05FE
:100BB80002211800FFF76CFD35E0A023DB050421B6
:100BC8001800FFF765FD2EE0A023DB0508211800BB
:100BD800FFF75EFD27E0A023DB0510211800FFF7D3
:100BE80057FD20E0A023DB0520211800FFF750FD6A
:100BF80019E0A023DB0540211800FFF749FD12E0AA
:100C0800A023DB0580211800FFF742FD0BE0094B0C
:100C180001211800FFF73CFD05E0064B02211800F2
:100C2800FFF736FDC046C046BD4602B080BDC0468F
:100C38007C3800080004005080B582B000AF7860AE
:100C4800FFF758FF7B680A2B4ED87B689A00284B21
:100C5800D3181B689F4680231A01A023DB051100C7
:100C68001800FFF715FD3FE080235A01A023DB059C
:100C780011001800FFF70CFD36E080231A02A023AC
:100C8800DB0511001800FFF703FD2DE0194B0821C3
:100C98001800FFF7FDFC27E0164B10211800FFF79E
:100CA800F7FC21E0134B20211800FFF7F1FC1BE0B3
:100CB800104B40211800FFF7EBFC15E00D4B80218D
:100CC8001800FFF7E5FC0FE080235B00094A1900D4
:100CD8001000FFF7DDFC07E080239B00054A1900A0
:100CE8001000FFF7D5FCC046C046BD4602B080BD27
:100CF800A83800080004005080B500AF254B1B78C9
:100D0800432B13D1244B04211800FFF7C1FC802387
:100D18005A00A023DB0511001800FFF7C5FC80234B
:100D2800DB011E4A19001000FFF7BEFC194B1B78A7
:100D3800502B13D1184B04211800FFF7B5FC802362
:100D48005A00A023DB0511001800FFF7A1FC80233F
:100D5800DB01124A19001000FFF79AFC0D4B1B78B3
:100D6800002B13D10C4B04211800FFF79DFC8023A6
:100D78005A00A023DB0511001800FFF795FC80231B
:100D8800DB01064A19001000FFF78EFCC046BD467D
:100D980080BDC046C0030020000400500008005079
:100DA80080B500AF374B1B68A02B05D10120FFF79A
:100DB80043FF0120FFF7E4FE324B1B68502B05D19F
:100DC8000220FFF739FF0220FFF7DAFE2D4B1B68E0
:100DD800282B05D10320FFF72FFF0320FFF7D0FEB4
:100DE800284B1B681E2B05D10420FFF725FF042084
:100DF800FFF7C6FE234B1B68142B05D10520FFF710
:100E08001BFF0520FFF7BCFE1E4B1B68112B05D1ED
:100E18000620FFF711FF0620FFF7B2FE194B1B68EB
:100E28000F2B05D10720FFF707FF0720FFF7A8FEC4
:100E3800144B1B680C2B05D10820FFF7FDFE08207A
:100E4800FFF79EFE0F4B1B680A2B05D10920FFF701
:100E5800F3FE0920FFF794FE0A4B1B68062B05D109
:100E68000A20FFF7E9FE0A20FFF78AFE054B1B68F8
:100E7800002B03D1FFF73EFEFFF7FAFDC046BD4643
:100E880080BDC046BC03002080B500AF00F0BAFEAC
:100E980000F050F800F07AF900F0DEF800F0A6F85B
:100EA8001E4B20211800FFF7B3F903001A001C4B52
:100EB8001A701B4B1B78002B12D1184A194B1000C3
:100EC8001900E4231A0002F043FC154B13221A7090
:100ED800134B1B781A00114B11001800FFF7D0F9BB
:100EE800114B1800FFF7CAFA0F4B1800FFF7E2FA88
:100EF8000E4B1800FFF79AFB0D4B40211800FFF727
:100F0800B4FB0300012B03D1FFF74AFFFFF7F4FE00
:100F1800FFF736FCC82002F0CBFBEDE7B00000205D
:100F280030020020983700080020004000380140B7
:100F38000008005090B593B000AF14243B19180076
:100F480034231A00002102F0D7FB3B1D18001023A0
:100F58001A00002102F0D0FB80239B00180001F04A
:100F68004FF93B1902221A603B1980225200DA60BD
:100F780021007B1800221A617B1840225A617B18D5
:100F88000222DA617B1802221A627B1800225A6256
:100F98007B1808229A627B1880229202DA627B18F8
:100FA800802292051A637B18180001F069F9031E64
:100FB80001D000F0B9FB3B1D07221A603B1D02223D
:100FC8005A603B1D802212019A603B1D0022DA60A4
:100FD8003B1D0121180001F063FC031E01D000F045
:100FE800A3FBC046BD4613B090BD000080B586B0D7
:100FF80000AF3B1D180014231A00002102F07CFBEF
:1010080080231B021800FFF75BFB00211320FFF76A
:10101800C7F91320FFF7AAF93B1D0D4A1A803B1D9B
:1010280000225A603B1DF422FF329A603B1D0022C9
:10103800DA603B1D074A1900100002F0B3F9054BAE
:101048001800FFF729FAC046BD4606B080BDC04665
:10105800FF7C00000020004080B594B000AF302332
:10106800FB18180020231A00002102F045FB182362
:10107800FB18180018231A00002102F03DFB3B0062
:10108800180018231A00002102F036FB3B00012249
:101098001A603B0000225A603B00180001F08AFDEC
:1010A800031E01D000F040FB8023DB011800FFF78E
:1010B80007FB0120FFF71AFB18217B1880229200FA
:1010C8001A607B1802225A607B1800229A607B18EB
:1010D8000122DA607B1801221A617B1801225A6109
:1010E8007A18A023DB051100180001F042FF002147
:1010F8001B20FFF755F91B20FFF738F930217B1823
:1011080000221A607B189622D2015A607B180022AE
:101118009A607B180022DA607B1800221A617B181B
:101128000C225A617B180022DA617B18164A1900D2
:10113800100002F04BFA144B00211800FFF7E6F9F3
:10114800114B00211800FFF705FA0F4B1800FFF7A5
:10115800CDF90D4B1800FFF723FA0B4B1800FFF7DA
:10116800B7F9C046084B1800FFF738FA031EF9D044
:10117800054B1800FFF746FA031EF3D0C046C046D9
:10118800BD4614B080BDC0460038014080B586B069
:1011980000AF3B00180018231A00002102F0ACFA37
:1011A8000220FFF7A3FA0420FFF7A0FA0120FFF7B7
:1011B8009DFA80239B00FE4A19001000FFF774FA7D
:1011C8008023DB01FB4A19001000FFF76DFA80232A
:1011D8001B02F84A19001000FFF766FAA023DB0586
:1011E80001211800FFF760FAA023DB05022118008F
:1011F800FFF75AFAA023DB0504211800FFF754FA79
:10120800A023DB0508211800FFF74EFAA023DB0511
:1012180010211800FFF748FAA023DB052021180049
:10122800FFF742FAA023DB0540211800FFF73CFA3C
:10123800A023DB0580211800FFF736FADC4B0121DB
:101248001800FFF731FADA4B02211800FFF72CFAE1
:10125800D74B04211800FFF727FA80235A00A02350
:10126800DB0511001800FFF71FFA80231A01A023DD
:10127800DB0511001800FFF717FA80235A01A02395
:10128800DB0511001800FFF70FFA80231A02A023CC
:10129800DB0511001800FFF707FAC54B08211800F5
:1012A800FFF702FAC24B10211800FFF7FDF9C04BF7
:1012B80020211800FFF7F8F9BD4B40211800FFF76F
:1012C800F3F9BB4B80211800FFF7EEF980235B0090
:1012D800B74A19001000FFF7E7F93B008022920097
:1012E8001A603B0001225A603B0000229A603B00D2
:1012F8000022DA603B0000221A613B00AC4A190068
:10130800100001F036FE3B008022D2011A603B003B
:1013180001225A603B0000229A603B000022DA60FA
:101328003B0000221A613B00A24A1900100001F09C
:1013380020FE3B00802212021A603B0001225A6004
:101348003B0000229A603B000022DA603B0000224A
:101358001A613B00974A1900100001F00AFE3B0091
:1013680001221A603B0001225A603B0000229A6069
:101378003B000022DA603B0000221A613A00A023F9
:10138800DB051100180001F0F4FD3B0002221A6091
:101398003B0001225A603B0000229A603B00002279
:1013A800DA603B0000221A613A00A023DB05110035
:1013B800180001F0DEFD3B0004221A603B00012208
:1013C8005A603B0000229A603B000022DA603B0032
:1013D80000221A613A00A023DB051100180001F071
:1013E800C8FD3B0008221A603B0001225A603B00FE
:1013F80000229A603B000022DA603B0000221A615A
:101408003A00A023DB051100180001F0B2FD3B00F3
:1014180010221A603B0001225A603B0000229A60A9
:101428003B000022DA603B0000221A613A00A02348
:10143800DB051100180001F09CFD3B0020221A601A
:101448003B0001225A603B0000229A603B000022C8
:10145800DA603B0000221A613A00A023DB05110084
:10146800180001F086FD3B0040221A603B00012273
:101478005A603B0000229A603B000022DA603B0081
:1014880000221A613A00A023DB051100180001F0C0
:1014980070FD3B0080221A603B0001225A603B002D
:1014A80000229A603B000022DA603B0000221A61A9
:1014B8003A00A023DB051100180001F05AFD3B009B
:1014C80001221A603B0001225A603B0000229A6008
:1014D8003B000022DA603B0000221A613B00344ADC
:1014E8001900100001F045FD3B0002221A603B0084
:1014F80001225A603B0000229A603B000022DA6019
:101508003B0000221A613B00294A1900100001F033
:1015180030FD3B0004221A603B0001225A603B0068
:1015280000229A603B000022DA603B0000221A6128
:101538003B001F4A1900100001F01BFD3B008022F0
:1015480052001A603B0001225A603B0000229A6058
:101558003B000022DA603B0000221A613A00A02317
:10156800DB051100180001F004FD3B0040221A6061
:101578003B0000225A603B0001221A613B000D4AE1
:101588001900100001F0F5FC3B00802212011A60DE
:101598003B0001225A603B0000229A603B00002277
:1015A800DA603B0000221A613A00A023DB0503E061
:1015B80000040050000800501100180001F0D9FC88
:1015C8003B00802252011A603B0001225A603B0016
:1015D80000229A603B000022DA603B0000221A6178
:1015E8003A00A023DB051100180001F0C2FC3B0003
:1015F800802212021A603B0001225A603B0000223E
:101608009A603B000022DA603B0000221A613A002F
:10161800A023DB051100180001F0ABFC3B000822F9
:101628001A603B0001225A603B0000229A603B008E
:101638000022DA603B0000221A613B00394A190097
:10164800100001F096FC3B0010221A603B000122BA
:101658005A603B0000229A603B000022DA603B009F
:1016680000221A613B002F4A1900100001F081FC8A
:101678003B0020221A603B0001225A603B000022F6
:101688009A603B000022DA603B0000221A613B00AE
:10169800244A1900100001F06CFC3B0040221A603B
:1016A8003B0001225A603B0000229A603B00002266
:1016B800DA603B0000221A613B001A4A1900100048
:1016C80001F057FC3B0080221A603B0001225A605F
:1016D8003B0000229A603B000022DA603B000022B7
:1016E8001A613B000F4A1900100001F042FC3B0050
:1016F800802252001A603B0001225A603B000022FF
:101708009A603B000022DA603B0000221A613B002D
:10171800044A1900100001F02CFCC046BD4606B072
:1017280080BDC0460004005080B500AF72B6C04608
:10173800C046FDE780B582B000AF0F4B1A6C0E4B68
:1017480001210A431A640C4B1B6C012213407B6075
:101758007B68094BDA6B084B802149050A43DA6339
:10176800054BDA6B80235B0513403B603B68C04642
:10177800BD4602B080BDC0460010024080B582B0B0
:1017880000AF78607B68022252421A61C046BD46AB
:1017980002B080BD80B582B000AF78607B681B69FD
:1017A80001221340012B01D1012300E0002318007E
:1017B800BD4602B080BD80B582B000AF78607B685E
:1017C800DB6920221340202B01D1012300E00023F4
:1017D8001800BD4602B080BD80B582B000AF786009
:1017E8007B685B6ADBB21800BD4602B080BD80B57D
:1017F80084B000AF786039607B685B69FB60FB6828
:101808003A6813401A04FB68DB4339680B401A43F3
:101818007B689A61C046BD4604B080BD80B584B07F
:1018280000AF0200FB1D1A703D4B1B78DBB2002B8A
:1018380000D06FE03B4B1B889BB2002B04D1FB1DF3
:101848001B78AA2B00D067E0364B1B889BB2FF2B76
:1018580011D8344B1B889BB25A1C91B2314A118063
:101868001900314BFA1D12785A542E4B1B889BB223
:10187800022B16D103E02B4B00221A804DE00F21DA
:101888007B18294A52781A700A00BB181B78002B5B
:1018980003D0BB181B78202B03D9224B00221A80B7
:1018A8003BE0204B1B889BB2012B36D90E217B18BD
:1018B8001D4A52781A707B181B789BB21A1C92002A
:1018C800D318DB189AB20C217B1804321A807B18C3
:1018D8001A8880235B009A4203D9124B00221A808F
:1018E8001BE0104B1B889BB20C22BA1812889A4234
:1018F80013D10C4B1B889BB2013B0B4AD35CDBB268
:10190800552B03D1064B01221A7006E0054B002225
:101918001A8002E0C04600E0C046BD4604B080BD63
:10192800C6040020C4040020C403002080B586B08B
:1019380000AF786000237B6109233B6120E03B69AD
:101948007A68D2180F203B1812781A707B696422C3
:1019580053437B613B181B781B09DBB21A00130049
:101968009B009B185B0019003B181B780F22134043
:10197800CB181A007B699B187B613B69013B3B6173
:101988003B69042BDBDC7B69FA2291001800FEF727
:10199800B3FB03001800BD4606B080BD80B584B017
:1019A80000AF7860264B00221A60264B00221A707E
:1019B8000F23FB1800221A7038E00F203B181A7802
:1019C800214913005B009B189B005B587A689A4278
:1019D80026D33B181A781C4913005B009B189B0000
:1019E800CB1804331B687A689A4219D23B181A78C4
:1019F800154913005B009B189B00CB1808331B8804
:101A08001A000F4B1A603B181A780F4913005B0035
:101A18009B189B00CB180A331A780A4B1A700CE0F3
:101A28000F217B181A787B1801321A70074B1B7824
:101A38000F22BA1812789A42BFD3BD4604B080BDAF
:101A4800BC030020C0030020B000002030020020AA
:101A580080B584B000AF0200FB1D1A70244B1B78C0
:101A6800002B03D1FB1D1B78FE2B3DD1204B1B788F
:101A7800012B07D1FB1D1B78FE2B03D01C4B00222A
:101A88001A7032E01A4B1B781F2B0FD8184B1B7893
:101A98005A1CD1B2164A11701900164BFA1D127849
:101AA8005A54FB1D1B78FD2B1FD103E0104B00225D
:101AB8001A701AE00E4B1B78092B11D90D4B1B79A4
:101AC800002B03D00B4B1B79032B09D1094B1800B2
:101AD800FFF72CFF0300FB60FB681800FFF75EFFB1
:101AE800034B00221A7000E0C046BD4604B080BD1A
:101AF800C7040020C804002080B500AFC046FDE739
:101B080080B500AFC046FDE780B500AFC046BD4612
:101B180080BD80B500AFC046BD4680BD80B500AF72
:101B280000F0DAF8C046BD4680BD000080B500AFC1
:101B3800094B1800FFF72EFE031E0AD0064B1800AB
:101B4800FFF71CFE80231B02044A19001000FFF750
:101B58004EFEC046BD4680BD002000400008005033
:101B680090B583B000AF0E4B1800FFF724FE031E9C
:101B780011D0FC1D0A4B1800FFF72EFE030023703E
:101B8800FB1D1B781800FFF749FEFB1D1B7818008A
:101B9800FFF75EFF00E0C046BD4603B090BDC046FB
:101BA8000038014080B500AFC046BD4680BD00008A
:101BB8000D488546FFF7F6FF0C480D490D4A0023EE
:101BC80002E0D458C4500433C4188C42F9D30A4AEA
:101BD8000A4C002301E013600432A242FBD301F057
:101BE80093FDFFF751F9FEE70020002000000020D8
:101BF800940000206C39000894000020080500209B
:101C0800FEE7000080B582B000AFFB1D00221A700D
:101C18000B4B1A680A4B802149000A431A600320BB
:101C280000F010F8031E03D0FB1D01221A7001E01A
:101C3800FFF780FDFB1D1B781800BD4602B080BD74
:101C48000020024090B585B000AF78600F23FB18E4
:101C580000221A701D4B1B78002B2BD01C4B1C68C4
:101C68001A4B1B781900FA239800FEF745FA03006F
:101C780019002000FEF740FA0300180000F013F9DD
:101C8800031E12D17B68032B0AD8796801235B42B3
:101C98000022180000F0F2F80E4B7A681A600DE086
:101CA8000F23FB1801221A7008E00F23FB180122EA
:101CB8001A7003E00F23FB1801221A700F23FB1878
:101CC8001B781800BD4605B090BDC046080000202E
:101CD800000000200400002080B500AF054B1B78F1
:101CE8001A00054B1B68D218034B1A60C046BD4644
:101CF80080BDC04608000020E804002080B500AF81
:101D0800024B1B681800BD4680BDC046E804002091
:101D180080B584B000AF7860FFF7F0FF0300BB60C8
:101D28007B68FB60FB68013305D00A4B1B781A00FF
:101D3800FB689B18FB60C046FFF7E0FF0200BB682A
:101D4800D31AFA689A42F7D8C046C046BD4604B0CE
:101D580080BDC0460800002090B583B000AF0200E7
:101D68003960FB1D1A70FB1D1B787F2B28D82F4A62
:101D7800FB1D1B785BB29B08C0339B009B58FA1D68
:101D88001278110003220A40D200FF2191400A0074
:101D9800D2431A4011003B689B01FF221A40FB1DE9
:101DA8001B78180003230340DB009A401F48FB1DE3
:101DB8001B785BB29B080A43C0339B001A5031E082
:101DC8001B4AFB1D1B7819000F230B40083B9B087F
:101DD80006339B00D31804331B68FA1D12781100D0
:101DE80003220A40D200FF2191400A00D2431A4040
:101DF80011003B689B01FF221A40FB1D1B7818004D
:101E080003230340DB009A400948FB1D1B781C0094
:101E18000F232340083B9B080A4306339B00C31843
:101E280004331A60C046BD4603B090BD00E100E02F
:101E380000ED00E080B582B000AF78607B685A1E84
:101E480080235B049A4201D3012310E00A4B7A688D
:101E5800013A5A6001235B4203211800FFF77CFF17
:101E6800054B00229A60044B07221A6000231800D1
:101E7800BD4602B080BDC04610E000E080B584B029
:101E880000AFB9607A600F217B18021C1A70BA681B
:101E98007B181B785BB211001800FFF75DFFC04686
:101EA800BD4604B080BD80B582B000AF78607B6865
:101EB8001800FFF7BFFF03001800BD4602B080BD41
:101EC800B0B586B000AFF860B9603A607B60214B6E
:101ED8001B78012B01D1022338E01E4B01221A7016
:101EE8001C4B00225A6017257C19FA239B00180006
:101EF80000F074F8030023707B191B78002B1FD1A6
:101F0800FB68012B06D13A687B68B968080000F0C5
:101F1800B3F805E03A68BB681100180001F030FC1E
:101F28001723FC18FA239B00180000F057F8030049
:101F38002370094B5A69FB68D943074B0A405A6119
:101F4800044B00221A701723FB181B781800BD4693
:101F580006B0B0BDEC0400200020024080B582B07D
:101F680000AFFB1D00221A700B4B5B69002B0CDACB
:101F7800094B0A4A9A60084B094A9A60064B5B6902
:101F8800002B02DAFB1D01221A70FB1D1B781800BA
:101F9800BD4602B080BDC04600200240230167450F
:101FA800AB89EFCD80B582B000AFFB1D01221A705E
:101FB800094B5A69084B802109060A435A61064BA6
:101FC8005B69002B02DAFB1D00221A70FB1D1B78CF
:101FD8001800BD4602B080BD0020024080B584B024
:101FE80000AF7860FFF78AFE02007B689B18FB60F1
:101FF80080235B02BB6007E0FFF780FE0200FB68FE
:10200800934201D803232AE0174B1B69BA6813408F
:10201800F2D1154B1B69154A1340BB60124B144A89
:102028001A61BB68002B04D0124BBA685A600123AE
:1020380015E0FFF763FE02007B689B18FB6007E072
:10204800FFF75CFE0200FB68934201D8032306E019
:10205800054B1A698023DB021340F1D100231800D5
:10206800BD4604B080BDC04600200240FA8300008F
:10207800FB830000EC040020B0B584B000AFF8602A
:102088003A607B600B4B5A690A4B01210A435A613B
:10209800FB683A681A60BFF36F8FC0467B681C0004
:1020A80000231D00FB68043322001A60C046BD46A9
:1020B80004B0B0BD00200240B0B584B000AF786075
:1020C8003960354B1B78012B01D102235FE0324B7D
:1020D80001221A70304B00225A600F257C19FA230E
:1020E8009B001800FFF77AFF030023702C003B19B0
:1020F8001B78002B45D17B6804225A607B681B68DB
:10210800042B0DD17B685B68180000F049F83C1976
:10211800FA239B001800FFF761FF0300237030E0EB
:102128003B68012252421A607B689B68BB601AE0D8
:102138007B685B68BA681100180000F045F80F2545
:102148007C19FA239B001800FFF748FF030023704F
:102158007B191B78002B03D03B68BA681A600AE029
:10216800BB680133BB607B689A687B68DB68D318FF
:10217800BA689A42DCD3094B5A69084B02218A4350
:102188005A61054B00221A700F23FB181B781800A0
:10219800BD4604B0B0BDC046EC040020002002409B
:1021A80080B582B000AF7860064B5A697B681A43E5
:1021B800044B802149020A435A61C046BD4602B019
:1021C80080BDC0460020024080B584B000AF786072
:1021D8003960084B5B69084A1340FB603B68DA00CA
:1021E800FB681A43034B05490A435A61C046BD467A
:1021F80004B080BD0020024007E0FFFF020001009C
:1022080080B584B000AF7860194B1B68194A134039
:102218001900174B7A680A431A607A6880239B0072
:102228009A421FD1144B1A6813005B009B185B007D
:1022380012491800FDF760FF03000133FB6008E056
:10224800FB68002B03D0FB68013BFB6001E0032324
:1022580009E0074B5A698023DB001A408023DB0022
:102268009A42EDD000231800BD4604B080BDC04698
:1022780000700040FFF9FFFF0000002040420F00FF
:1022880080B588B000AF78607B68002B01D101234E
:10229800F3E27B681B680122134000D17CE0C34B4A
:1022A8009B6838221340BB61C04BDB680322134094
:1022B8007B61BB69102B02D17B69032B02D0BB6900
:1022C800082B0BD1B94B1A6880239B02134062D0AC
:1022D8007B685B68002B5ED10123CEE27B685A687D
:1022E80080235B029A4207D1B04B1A68AF4B80211A
:1022F80049020A431A6020E07B685A68A023DB027F
:102308009A420ED1A94B1A68A84B8021C9020A43E8
:102318001A60A64B1A68A54B802149020A431A6025
:102328000BE0A24B1A68A14BA1490A401A609F4BC7
:102338001A689E4B9F490A401A607B685B68002BAD
:1023480014D0FFF7DBFC03003B6108E0FFF7D6FC85
:1023580002003B69D31A642B01D903238DE2934B06
:102368001A6880239B021340F0D015E0FFF7C6FCE3
:1023780003003B6108E0FFF7C1FC02003B69D31A88
:10238800642B01D9032378E2884B1A6880239B02C7
:102398001340F0D100E0C0467B681B68022213405E
:1023A80000D199E0814B9B6838221340BB617F4B79
:1023B800DB68032213407B61BB69102B02D17B6968
:1023C800022B02D0BB69002B35D1784B1A688023C9
:1023D800DB00134005D07B68DB68002B01D10123AB
:1023E8004BE2724B5B68744A134019007B685B6967
:1023F8001A026E4B0A435A60BB69002B12D16B4B11
:102408001B686E4A134019007B681A69674B0A43B8
:102418001A60664B1B68DB0A07221340684ADA40D9
:10242800684B1A60684B1B681800FFF70BFC031E0B
:1024380051D0012321E27B68DB68002B30D05B4B55
:102448001B685E4A134019007B681A69574B0A4398
:102458001A60564B1A68554B802149000A431A6086
:10246800FFF74CFC03003B6108E0FFF747FC020064
:102478003B69D31A022B01D90323FEE14B4B1A689F
:102488008023DB001340F0D0484B5B684A4A134076
:1024980019007B685B691A02444B0A435A601BE0C7
:1024A800424B1A68414B49490A401A60FFF726FC1B
:1024B80003003B6108E0FFF721FC02003B69D31AE7
:1024C800022B01D90323D8E1384B1A688023DB009B
:1024D8001340F0D100E0C0467B681B680822134017
:1024E80047D0324B9B6838221340182B0AD12F4B08
:1024F8001B6E022213403CD07B689B69002B38D1AD
:102508000123BAE17B689B69002B19D0274B1A6E0F
:10251800264B01210A431A66FFF7F0FB03003B61D3
:1025280008E0FFF7EBFB02003B69D31A022B01D945
:102538000323A2E11D4B1B6E02221340F1D018E0C9
:102548001A4B1A6E194B01218A431A66FFF7D6FBFC
:1025580003003B6108E0FFF7D1FB02003B69D31A97
:10256800022B01D9032388E1104B1B6E0222134072
:10257800F1D17B681B680422134000D1C6E01F23F9
:10258800FB1800221A70094B9B6838221340202B35
:102598001ED1064BDB6D0222134000D1B6E07B68EA
:1025A8009B68002B00D0B1E0012366E100100240D7
:1025B800FFFFFEFFFFFFFBFFFF80FFFFFFC7FFFFDF
:1025C8000024F4000000002004000020FFFEFFFFAC
:1025D800AC4BDA6B80235B05134001D1012300E08B
:1025E8000023002B11D0A74BDA6BA64B802149059D
:1025F8000A43DA63A34BDA6B80235B051340FB6065
:10260800FB681F23FB1801221A709F4B1A6880234E
:102618005B0013401AD19C4B1A689B4B80214900E0
:102628000A431A60FFF76AFB03003B6108E0FFF703
:1026380065FB02003B69D31A022B01D903231CE175
:10264800914B1A6880235B001340F0D07B689B682D
:10265800012B06D18B4BDA6D8A4B01210A43DA65CF
:102668001CE07B689B68052B0CD1864BDA6D854B8B
:1026780004210A43DA65834BDA6D824B01210A4350
:10268800DA650BE07F4BDA6D7E4B01218A43DA6510
:102698007C4BDA6D7B4B04218A43DA657B689B6847
:1026A800002B14D0FFF72AFB03003B6109E0FFF77A
:1026B80025FB02003B69D31A744A934201D90323CC
:1026C800DBE0704BDB6D02221340F0D013E0FFF724
:1026D80015FB03003B6109E0FFF710FB02003B69B3
:1026E800D31A6A4A934201D90323C6E0654BDB6DCE
:1026F80002221340F0D11F23FB181B78012B05D1B0
:10270800604BDA6B5F4B62490A40DA637B68DB69CE
:10271800002B00D1B0E05B4B9B6838221340102B94
:1027280000D178E07B68DB69022B53D1554B1A68DE
:10273800544B58490A401A60FFF7E0FA03003B611E
:1027480008E0FFF7DBFA02003B69D31A022B01D934
:10275800032392E04B4B1A6880239B041340F0D16B
:10276800484BDB684C4A134019007B681A6A7B683F
:102778005B6A1A437B689B6A1B021A437B68DB6AA5
:102788001A437B681B6B1A433E4B0A43DA603D4B86
:102798001A683C4B802149040A431A60394BDA68AD
:1027A800384B802149050A43DA60FFF7A7FA03008E
:1027B8003B6108E0FFF7A2FA02003B69D31A022B3B
:1027C80001D9032359E02F4B1A6880239B04134037
:1027D800F0D051E02B4B1A682A4B2E490A401A6058
:1027E800FFF78CFA03003B6108E0FFF787FA020065
:1027F8003B69D31A022B01D903233EE0214B1A6807
:1028080080239B041340F0D11E4BDA681D4B2349EB
:102818000A40DA6030E07B68DB69012B01D10123D3
:102828002BE0184BDB687B617B6903221A407B68CD
:102838001B6A9A421ED17B6970221A407B685B6AC8
:102848009A4217D17A69FE23DB011A407B689B6A9A
:102858001B029A420ED17A69F8239B031A407B68BF
:10286800DB6A9A4206D17B695B0F5A077B681B6B50
:102878009A4201D0012300E000231800BD4608B0A9
:1028880080BDC04600100240007000408813000060
:10289800FFFFFFEFFFFFFFFE8C80C11FFCFFFEEF75
:1028A80080B584B000AF786039607B68002B01D1B7
:1028B8000123E9E0764B1B68072213403A689A42E5
:1028C8001ED9734B1B68072293431900704B3A6853
:1028D8000A431A60FFF712FA0300FB6009E0FFF7EA
:1028E8000DFA0200FB68D31A6A4A934201D90323FE
:1028F800CAE0674B1B68072213403A689A42EED138
:102908007B681B680222134015D07B681B68042271
:10291800134006D0604B9A685F4BE021C9010A4317
:102928009A605D4B9B685D4A134019007B689A6802
:10293800594B0A439A607B681B680122134057D0A1
:102948007B685B68012B07D1534B1A6880239B0275
:1029580013402BD1012397E07B685B68022B07D1DA
:102968004D4B1A6880239B0413401FD101238BE031
:102978007B685B68002B07D1474B1A688023DB0014
:10298800134013D101237FE07B685B68032B06D1DA
:10299800414B1B6E0222134008D1012374E03E4BC9
:1029A800DB6D0222134001D101236DE03A4B9B6895
:1029B8000722934319007B685A68374B0A439A6089
:1029C800FFF79CF90300FB6009E0FFF797F90200A5
:1029D800FB68D31A2F4A934201D9032354E02E4BA4
:1029E8009B6838221A407B685B68DB009A42ECD10E
:1029F800274B1B68072213403A689A421ED2244B81
:102A08001B68072293431900214B3A680A431A604E
:102A1800FFF774F90300FB6009E0FFF76FF90200A4
:102A2800FB68D31A1B4A934201D903232CE0184BA5
:102A38001B68072213403A689A42EED17B681B68EC
:102A48000422134009D0144B9B68154A13401900FF
:102A58007B68DA68104B0A439A6000F029F8010095
:102A68000D4B9B681B0A0F221A400E4B9200D3583D
:102A78001F2213400A00DA400B4B1A600B4B1B68ED
:102A88001800FFF7DFF803001800BD4604B080BD4A
:102A9800002002408813000000100240FFF0FFFFF2
:102AA800FF8FFFFFD438000800000020040000203A
:102AB80080B586B000AF3C4B9B68382213400FD1DD
:102AC800394B1B68DB0A0722134001229A40130086
:102AD8003B6039683548FDF70FFB03003B615DE05B
:102AE800314B9B6838221340082B02D1304B3B6195
:102AF80054E02D4B9B6838221340102B38D12A4BB9
:102B0800DB6803221340FB60274BDB681B090722A5
:102B180013400133BB60FB68032B0DD1B96824480F
:102B2800FDF7EAFA030019001F4BDB681B0A7F2236
:102B380013404B437B610DE0B9681C48FDF7DCFA94
:102B480003001900184BDB681B0A7F2213404B4314
:102B58007B61C046144BDB685B0F072213400133CF
:102B68007B6079687869FDF7C7FA03003B6115E077
:102B78000D4B9B6838221340202B03D180231B0266
:102B88003B610BE0084B9B6838221340182B03D19C
:102B9800FA23DB013B6101E000233B613B6918003C
:102BA800BD4606B080BDC046001002400024F400B7
:102BB80000127A0080B586B000AF78601323FB1846
:102BC80000221A701223FB1800221A707B681A68F8
:102BD80080239B02134000D1A3E011203B18002260
:102BE8001A707F4BDA6B80235B05134010D17C4B46
:102BF800DA6B7B4B802149050A43DA63784BDA6B41
:102C080080235B051340BB60BB683B1801221A7028
:102C1800744B1A68734B802149000A431A60FFF706
:102C28006DF80300FB600BE0FFF768F80200FB6833
:102C3800D31A022B04D91323FB1803221A7005E0B8
:102C4800684B1A6880235B001340EDD01323FB18F0
:102C58001B78002B54D1624BDA6DC0239B001340C4
:102C68007B617B69002B19D07B685B697A699A4222
:102C780014D05B4BDB6D5C4A13407B61584BDA6DBB
:102C8800574B802149020A43DA65554BDA6D544B9C
:102C980056490A40DA65524B7A69DA657B6901223E
:102CA800134016D0FFF72AF80300FB600CE0FFF78B
:102CB80025F80200FB68D31A4D4A934204D913231E
:102CC800FB1803221A7004E0454BDB6D0222134007
:102CD800EDD01323FB181B78002B0AD1404BDB6D7A
:102CE800414A134019007B685A693D4B0A43DA652B
:102CF8000CE01223FB181322BA1812781A7005E098
:102D08001223FB181322BA1812781A701123FB1811
:102D18001B78012B05D1324BDA6B314B35490A4010
:102D2800DA637B681B680122134009D02C4B5B6D6A
:102D38000322934319007B685A68294B0A435A6552
:102D48007B681B682022134009D0254B5B6D2A4AFB
:102D5800134019007B689A68214B0A435A657B68BF
:102D68001A688023DB01134015D01D4B5B6D9B0057
:102D780099087B681A691A4B0A435A657B681A696D
:102D88008023DB059A4206D1154BDA68144B802163
:102D980049020A43DA607B681A6880231B011340E2
:102DA80016D00F4B5B6D154A134019007B68DA6823
:102DB8000B4B0A435A657B68DA688023DB019A4229
:102DC80006D1074BDA68064B802149020A43DA60CC
:102DD8001223FB181B781800BD4606B080BDC046FC
:102DE8000010024000700040FFFCFFFFFFFFFEFFE5
:102DF80088130000FFFFFFEFFFCFFFFFFF3FFFFF3C
:102E080080B584B000AFF860B9607A60FB68196873
:102E1800BB685B431A0013005B009B18DB430B4045
:102E28001A00BB685B4379684B431A43FB681A6016
:102E3800C046BD4604B080BD80B584B000AFF86020
:102E4800B9607A60FB685B68BA68D2431A40BB68AD
:102E580079684B431A43FB685A60C046BD4604B0C4
:102E680080BD80B584B000AFF860B9607A60FB6857
:102E78009968BB685B431A0013005B009B18DB432F
:102E88000B401A00BB685B4379684B431A43FB68E5
:102E98009A60C046BD4604B080BD80B584B000AF1E
:102EA800F860B9607A60FB68D968BB685B431A0050
:102EB80013005B009B18DB430B401A00BB685B43A5
:102EC80079684B431A43FB68DA60C046BD4604B0D4
:102ED80080BD80B584B000AFF860B9607A60FB68E7
:102EE800196ABB685B43BA685343BA685A4313000C
:102EF8001B019B1ADB430B401A00BB685B43B96894
:102F08004B43B9684B4379684B431A43FB681A62D1
:102F1800C046BD4604B080BD80B584B000AFF8603F
:102F2800B9607A60FB68596ABB681B0ABA68120AFA
:102F38005343BA68120A5343BA68120A5A43130031
:102F48001B019B1ADB430B401A00BB681B0AB968BC
:102F5800090A4B43B968090A4B43B968090A4B4344
:102F680079684B431A43FB685A62C046BD4604B0B1
:102F780080BD80B584B000AF786039600023FB6005
:102F880047E03B681B680121FA6891400A0013403A
:102F9800BB60BB68002B39D03B685B68012B03D052
:102FA8003B685B68022B0DD13B689A68B9687B68FF
:102FB8001800FFF756FF3B68DA68B9687B681800A5
:102FC800FFF73AFF3B681A69B9687B681800FFF792
:102FD80064FF3B685B68022B11D1BB68FF2B07D8E5
:102FE8003B685A69B9687B681800FFF772FF06E00A
:102FF8003B685A69B9687B681800FFF78DFF3B6822
:103008005A68B9687B681800FFF7FAFEFB68013355
:10301800FB603B681A68FB68DA40131EB1D10023D5
:103028001800BD4604B080BD80B500AF074B1A68D4
:103038008023DB001A408023DB009A4201D1012360
:1030480000E000231800BD4680BDC04600100240C5
:1030580080B500AF054BDB6D02221340022B01D176
:10306800012300E000231800BD4680BD0010024087
:1030780080B500AF034B9B68382213401800BD464B
:1030880080BDC0460010024080B500AF034B9A686F
:10309800F0231B0113401800BD4680BD00100240FC
:1030A80080B500AF034B9A68E023DB01134018009A
:1030B800BD4680BD0010024080B582B000AF786088
:1030C800054B5B6D7A681A407B681B041343180034
:1030D800BD4602B080BDC0460010024080B500AFBA
:1030E800034BDB681B0A7F2213401800BD4680BDD6
:1030F8000010024080B500AF034BDB685B0F5B0735
:103108001800BD4680BDC0460010024080B500AF23
:10311800034BDB68032213401800BD4680BDC04640
:103128000010024080B500AF034BDB6870221340EB
:103138001800BD4680BDC0460010024080B582B070
:1031480000AF786000F066F802007B681A607B6860
:103158001B68180000F08CF802007B685A607B68D6
:103168005B68180000F09CF802007B689A60C04613
:10317800BD4602B080BD000080B584B000AF786065
:103188000023FB607B68032B37D17B681800FFF7AF
:1031980093FF03001B4A934216D01A4A93421CD845
:1031A800194A934203D0194A934205D015E000F01A
:1031B80031F80300FB6020E0FFF736FF0300012B26
:1031C80018D1134BFB6015E0FFF742FF0300012BFA
:1031D80012D180231B02FB600EE000F01BF80300F5
:1031E800180000F045F80300180000F059F8030033
:1031F800FB6002E0C04600E0C046FB681800BD4620
:1032080004B080BD030003000100030002000300B6
:103218000024F40080B582B000AFFFF729FF030057
:10322800082B02D0102B03D007E00E4B7B6014E074
:1032380000F04CF803007B600FE00B4B1B68DB0AC7
:103248000722134001229A4013003B60396807485F
:10325800FCF752FF03007B60C0467B681800BD4640
:1032680002B080BD00127A00001002400024F40071
:1032780080B582B000AF7860FFF706FF03001B0A35
:103288000F221A40054B9200D3581F2213407A6828
:10329800DA4013001800BD4602B080BDD4380008DB
:1032A80080B582B000AF7860FFF7FAFE03001A0B12
:1032B800054B9200D3581F2213407A68DA40130056
:1032C8001800BD4602B080BD1439000890B583B01F
:1032D80000AFFFF71BFF03003B603B68022B03D0E6
:1032E8003B68032B03D005E0134B7B6005E0134BD1
:1032F8007B6002E0104B7B60C046FFF7EFFE0200E8
:103308007B6853431C00FFF70DFF03001B090133C3
:1033180019002000FCF7F0FE03001C00FFF7EAFE8E
:1033280003005B0F013319002000FCF7E5FE0300E2
:103338001800BD4603B090BD0024F40000127A00C6
:1033480080B582B000AF786039607B683A689A626D
:10335800C046BD4602B080BD80B582B000AF78607F
:1033680039607B683A68DA62C046BD4602B080BD03
:1033780080B582B000AF786039607B683A681A63BC
:10338800C046BD4602B080BD80B582B000AF78604F
:103398007B685B6901221A437B685A61C046BD4657
:1033A80002B080BD80B584B000AF786039607B68BA
:1033B8001B68FB607B682C4A934203D07B682B4ACE
:1033C800934207D1FB68702293431A003B685B68FD
:1033D8001343FB607B68244A93420FD07B68234ADF
:1033E80093420BD07B68224A934207D07B68214ADC
:1033F800934203D07B68204A934206D1FB681F4A58
:103408001A403B68DB681343FB607B68FA681A6004
:103418003B689A687B6811001800FFF79DFF3B68BE
:103428001B881A007B6811001800FFF789FF7B686A
:103438000D4A934207D07B680E4A934203D07B68BB
:103448000D4A934206D13B681A697B68110018003F
:10345800FFF78EFF7B681800FFF796FF0023180020
:10346800BD4604B080BDC046002C014000040040A9
:10347800002000400044014000480140FFFCFFFFDD
:1034880080B582B000AF78607B681B68012213406A
:10349800012B01D1012300E000231800BD4602B032
:1034A80080BD80B582B000AF786039607B68DB6A28
:1034B8000F2293433A6892B21A437B68DA62C04695
:1034C800BD4602B080BD000080B582B000AF786014
:1034D80039607B685B68054A1A403B681A437B6819
:1034E8005A60C046BD4602B080BDC046FFCFFFFF50
:1034F80080B582B000AF786039607B689B68054A08
:103508001A403B681A437B689A60C046BD4602B0C1
:1035180080BDC046FFFCFFFF80B586B000AFF860F5
:10352800B9607A603B607B680B2B46D83B6A002BFE
:1035380043D03A6880231B029A4226D17B68DBB2CB
:103548001A00204B9200D3581900B868FCF7D4FD34
:1035580003005A003B6A5B08D318396A1800FCF765
:10356800CBFD03009BB27B617B69174A13403B612B
:103578007B695B089BB21A00072313403A6913431F
:103588003B61FB683A69DA6017E07B68DBB21A00D6
:103598000C4B9200D3581900B868FCF7ADFD030036
:1035A8001A003B6A5B08D318396A1800FCF7A4FDB7
:1035B80003009BB21A00FB68DA60C046BD4606B03D
:1035C80080BDC04634390008F0FF000090B58BB0CC
:1035D80002AF786039601F23FB1801221A7000239C
:1035E800BB617B681800FFF74BFF031E53D17B6854
:1035F8001B682C4A1A403B6899683B681B69194349
:103608003B685B6919433B68DB690B431A437B687A
:103618001A603B68DA687B6811001800FFF754FFEE
:103628003B689A697B6811001800FFF761FF7B68A7
:103638001D4A934205D10320FFF79EFD0300BB619D
:103648000BE07B68194A934207D10C243B191800F8
:10365800FFF774FD3B199B68BB61BB69002B13D056
:103668003B685B68002B0FD01F23FB1800221A70E1
:103678003B681A683B68DC693B685B68B9697868CD
:1036880000932300FFF748FF3B681A687B68110026
:103698001800FFF706FF1F23FB181B781800BD460C
:1036A80009B090BDF369FFEF0038014000440040C5
:1036B80080B584B000AF78600E4B1B68BB60BB68F8
:1036C8007B68FB60FB6801330CD0FB680133FB604F
:1036D80008E0084B1A6880235B02134002D0FB689D
:1036E800013BFB60FB68002BF3D1C046C046BD46DA
:1036F80004B080BD10E000E003008218934200D1BE
:10370800704719700133F9E770B500260C4C0D4D60
:10371800641BA410A64209D1002600F023F80A4C25
:103728000A4D641BA410A64205D170BDB300EB5826
:1037380098470136EEE7B300EB5898470136F2E7B1
:1037480064390008643900086839000864390008D9
:10375800002310B59A4200D110BDCC5CC45401338B
:10376800F8E70000F8B5C046F8BC08BC9E467047AC
:10377800F8B5C046F8BC08BC9E467047000000007B
:1037880001B40248844601BC604700BF0D00002018
:103798000807000030070000A000430030070000C1
:1037A800D0070000A0005000AC0D0000100E000073
:1037B80050004300100E0000D80E000050005000CA
:1037C800581B00008A1B0000280043008A1B0000C9
:1037D800201C00002800500074270000A6270000C5
:1037E8001E004300B03600001E37000014004300DE
:1037F8001E3700000E3800001400500094460000E8
:10380800BE46000011004300BE460000F846000016
:103818001100500008520000765200000F004300CB
:1038280076520000CA5300000F0050003A610000B1
:10383800586100000C004300586100009E610000C0
:103848000C005000606D00008C6E00000A00430000
:103858008C6E0000307500000A00500050C3000054
:1038680018C400000600430018C40000F0D200008D
:10387800060050002E0C0008A60B0008B40B000828
:10388800C20B0008D00B0008DE0B0008EC0B000888
:10389800FA0B0008080C0008160C0008220C000897
:1038A800F00C00085E0C0008700C0008820C000880
:1038B800940C0008A00C0008AC0C0008B80C000818
:1038C800C40C0008D00C0008E00C00080000000040
:1038D80000000000000000000000000000000000E0
:1038E80000000000000000000000000001000000CF
:1038F80002000000030000000400000006000000B1
:103908000700000008000000090000000000000097
:10391800000000000000000000000000010000009E
:103928000200000003000000040000000100000085
:10393800020000000400000006000000080000006B
:103948000A0000000C000000100000002000000029
:0C395800400000008000000000010000A2
:04396400E100000876
:04396800B90000089A
:10396C000024F400040000000100000080B588B0C1
:10397C0000AF786039601F23FB1800221A707B6837
:10398C00BB613B687B611A4B5A69194B8021C90298
:10399C000A435A61EFF31083FB60FB683B6172B61C
:1039AC00C0460FE07A69BB6912681A607B69043300
:1039BC007B61BB690433BB611F217B181A787B18B0
:1039CC0001321A701F23FB181B783F2BEAD9C04613
:1039DC00074B1A6980235B021340F9D13B69BB602A
:1039EC00BB6883F31088C046C046BD4608B080BD96
:0439FC000020024065
:0400000508001BB91B
:00000001FF
